{
  "contractName": "SupplyChainCafe",
  "abi": [
    {
      "constant": false,
      "inputs": [],
      "name": "renounceOwnership",
      "outputs": [],
      "payable": false,
      "stateMutability": "nonpayable",
      "type": "function"
    },
    {
      "constant": true,
      "inputs": [],
      "name": "owner",
      "outputs": [
        {
          "name": "",
          "type": "address"
        }
      ],
      "payable": false,
      "stateMutability": "view",
      "type": "function"
    },
    {
      "constant": false,
      "inputs": [
        {
          "name": "newOwner",
          "type": "address"
        }
      ],
      "name": "transferOwnership",
      "outputs": [],
      "payable": false,
      "stateMutability": "nonpayable",
      "type": "function"
    },
    {
      "inputs": [],
      "payable": false,
      "stateMutability": "nonpayable",
      "type": "constructor"
    },
    {
      "anonymous": false,
      "inputs": [
        {
          "indexed": false,
          "name": "caller",
          "type": "address"
        }
      ],
      "name": "AuthorizedCaller",
      "type": "event"
    },
    {
      "anonymous": false,
      "inputs": [
        {
          "indexed": false,
          "name": "caller",
          "type": "address"
        }
      ],
      "name": "DeAuthorizedCaller",
      "type": "event"
    },
    {
      "anonymous": false,
      "inputs": [
        {
          "indexed": true,
          "name": "user",
          "type": "address"
        },
        {
          "indexed": true,
          "name": "batchNo",
          "type": "address"
        }
      ],
      "name": "PerformCultivation",
      "type": "event"
    },
    {
      "anonymous": false,
      "inputs": [
        {
          "indexed": true,
          "name": "user",
          "type": "address"
        },
        {
          "indexed": true,
          "name": "batchNo",
          "type": "address"
        }
      ],
      "name": "DoneNongTrai",
      "type": "event"
    },
    {
      "anonymous": false,
      "inputs": [
        {
          "indexed": true,
          "name": "user",
          "type": "address"
        },
        {
          "indexed": true,
          "name": "batchNo",
          "type": "address"
        }
      ],
      "name": "DoneThuhoach",
      "type": "event"
    },
    {
      "anonymous": false,
      "inputs": [
        {
          "indexed": true,
          "name": "user",
          "type": "address"
        },
        {
          "indexed": true,
          "name": "batchNo",
          "type": "address"
        }
      ],
      "name": "DoneVanchuyen",
      "type": "event"
    },
    {
      "anonymous": false,
      "inputs": [
        {
          "indexed": true,
          "name": "user",
          "type": "address"
        },
        {
          "indexed": true,
          "name": "batchNo",
          "type": "address"
        }
      ],
      "name": "DoneSanxuat",
      "type": "event"
    },
    {
      "anonymous": false,
      "inputs": [
        {
          "indexed": true,
          "name": "user",
          "type": "address"
        },
        {
          "indexed": true,
          "name": "batchNo",
          "type": "address"
        }
      ],
      "name": "DoneTieuthu",
      "type": "event"
    },
    {
      "anonymous": false,
      "inputs": [
        {
          "indexed": true,
          "name": "user",
          "type": "address"
        },
        {
          "indexed": false,
          "name": "name",
          "type": "string"
        },
        {
          "indexed": false,
          "name": "contactNo",
          "type": "string"
        },
        {
          "indexed": false,
          "name": "role",
          "type": "string"
        },
        {
          "indexed": false,
          "name": "isActive",
          "type": "bool"
        }
      ],
      "name": "UserUpdate",
      "type": "event"
    },
    {
      "anonymous": false,
      "inputs": [
        {
          "indexed": true,
          "name": "user",
          "type": "address"
        },
        {
          "indexed": false,
          "name": "role",
          "type": "string"
        }
      ],
      "name": "UserRoleUpdate",
      "type": "event"
    },
    {
      "anonymous": false,
      "inputs": [
        {
          "indexed": true,
          "name": "previousOwner",
          "type": "address"
        }
      ],
      "name": "OwnershipRenounced",
      "type": "event"
    },
    {
      "anonymous": false,
      "inputs": [
        {
          "indexed": true,
          "name": "previousOwner",
          "type": "address"
        },
        {
          "indexed": true,
          "name": "newOwner",
          "type": "address"
        }
      ],
      "name": "OwnershipTransferred",
      "type": "event"
    },
    {
      "constant": false,
      "inputs": [
        {
          "name": "_caller",
          "type": "address"
        }
      ],
      "name": "authorizeCaller",
      "outputs": [
        {
          "name": "",
          "type": "bool"
        }
      ],
      "payable": false,
      "stateMutability": "nonpayable",
      "type": "function"
    },
    {
      "constant": false,
      "inputs": [
        {
          "name": "_caller",
          "type": "address"
        }
      ],
      "name": "deAuthorizeCaller",
      "outputs": [
        {
          "name": "",
          "type": "bool"
        }
      ],
      "payable": false,
      "stateMutability": "nonpayable",
      "type": "function"
    },
    {
      "constant": true,
      "inputs": [
        {
          "name": "Chuoi",
          "type": "string"
        }
      ],
      "name": "ChuoiRong",
      "outputs": [
        {
          "name": "",
          "type": "bool"
        }
      ],
      "payable": false,
      "stateMutability": "pure",
      "type": "function"
    },
    {
      "constant": true,
      "inputs": [
        {
          "name": "_userAddress",
          "type": "address"
        }
      ],
      "name": "getUserRole",
      "outputs": [
        {
          "name": "",
          "type": "string"
        }
      ],
      "payable": false,
      "stateMutability": "view",
      "type": "function"
    },
    {
      "constant": true,
      "inputs": [
        {
          "name": "_batchNo",
          "type": "address"
        }
      ],
      "name": "getNextAction",
      "outputs": [
        {
          "name": "",
          "type": "string"
        }
      ],
      "payable": false,
      "stateMutability": "view",
      "type": "function"
    },
    {
      "constant": true,
      "inputs": [
        {
          "name": "_userAddress",
          "type": "address"
        },
        {
          "name": "_name",
          "type": "string"
        },
        {
          "name": "_contactNo",
          "type": "string"
        },
        {
          "name": "_role",
          "type": "string"
        },
        {
          "name": "_isActive",
          "type": "bool"
        }
      ],
      "name": "setUser",
      "outputs": [
        {
          "name": "",
          "type": "bool"
        }
      ],
      "payable": false,
      "stateMutability": "view",
      "type": "function"
    },
    {
      "constant": false,
      "inputs": [
        {
          "name": "_userAddress",
          "type": "address"
        },
        {
          "name": "_name",
          "type": "string"
        },
        {
          "name": "_contactNo",
          "type": "string"
        },
        {
          "name": "_role",
          "type": "string"
        },
        {
          "name": "_isActive",
          "type": "bool"
        }
      ],
      "name": "updateUserForAdmin",
      "outputs": [
        {
          "name": "",
          "type": "bool"
        }
      ],
      "payable": false,
      "stateMutability": "nonpayable",
      "type": "function"
    },
    {
      "constant": false,
      "inputs": [
        {
          "name": "_name",
          "type": "string"
        },
        {
          "name": "_contactNo",
          "type": "string"
        },
        {
          "name": "_role",
          "type": "string"
        },
        {
          "name": "_isActive",
          "type": "bool"
        }
      ],
      "name": "updateUser",
      "outputs": [
        {
          "name": "",
          "type": "bool"
        }
      ],
      "payable": false,
      "stateMutability": "nonpayable",
      "type": "function"
    },
    {
      "constant": true,
      "inputs": [
        {
          "name": "_userAddress",
          "type": "address"
        }
      ],
      "name": "getUser",
      "outputs": [
        {
          "name": "name",
          "type": "string"
        },
        {
          "name": "contactNo",
          "type": "string"
        },
        {
          "name": "role",
          "type": "string"
        },
        {
          "name": "isActive",
          "type": "bool"
        }
      ],
      "payable": false,
      "stateMutability": "view",
      "type": "function"
    },
    {
      "constant": true,
      "inputs": [
        {
          "name": "_userAddress",
          "type": "address"
        }
      ],
      "name": "getUserAdmin",
      "outputs": [
        {
          "name": "name",
          "type": "string"
        },
        {
          "name": "contactNo",
          "type": "string"
        },
        {
          "name": "role",
          "type": "string"
        },
        {
          "name": "isActive",
          "type": "bool"
        }
      ],
      "payable": false,
      "stateMutability": "view",
      "type": "function"
    },
    {
      "constant": true,
      "inputs": [
        {
          "name": "_batchNo",
          "type": "address"
        }
      ],
      "name": "getBasicDetails",
      "outputs": [
        {
          "name": "registrationNo",
          "type": "string"
        },
        {
          "name": "nongtrainame",
          "type": "string"
        },
        {
          "name": "diachinongtrai",
          "type": "string"
        },
        {
          "name": "vanchuyenName",
          "type": "string"
        },
        {
          "name": "sanxuatName",
          "type": "string"
        }
      ],
      "payable": false,
      "stateMutability": "view",
      "type": "function"
    },
    {
      "constant": false,
      "inputs": [
        {
          "name": "_registrationNo",
          "type": "string"
        },
        {
          "name": "_nongtrainame",
          "type": "string"
        },
        {
          "name": "_diachinongtrai",
          "type": "string"
        },
        {
          "name": "_vanchuyenName",
          "type": "string"
        },
        {
          "name": "_sanxuatName",
          "type": "string"
        }
      ],
      "name": "setBasicDetails",
      "outputs": [
        {
          "name": "",
          "type": "address"
        }
      ],
      "payable": false,
      "stateMutability": "nonpayable",
      "type": "function"
    },
    {
      "constant": false,
      "inputs": [
        {
          "name": "batchNo",
          "type": "address"
        },
        {
          "name": "_loaicafe",
          "type": "string"
        },
        {
          "name": "_hatgiong",
          "type": "string"
        },
        {
          "name": "_phanbon",
          "type": "string"
        }
      ],
      "name": "setnongtraiData",
      "outputs": [
        {
          "name": "",
          "type": "bool"
        }
      ],
      "payable": false,
      "stateMutability": "nonpayable",
      "type": "function"
    },
    {
      "constant": true,
      "inputs": [
        {
          "name": "batchNo",
          "type": "address"
        }
      ],
      "name": "getnongtraiData",
      "outputs": [
        {
          "name": "loaicafe",
          "type": "string"
        },
        {
          "name": "hatgiong",
          "type": "string"
        },
        {
          "name": "phanbon",
          "type": "string"
        }
      ],
      "payable": false,
      "stateMutability": "view",
      "type": "function"
    },
    {
      "constant": false,
      "inputs": [
        {
          "name": "batchNo",
          "type": "address"
        },
        {
          "name": "_cafe",
          "type": "string"
        },
        {
          "name": "_nhietdo",
          "type": "string"
        },
        {
          "name": "_doam",
          "type": "string"
        }
      ],
      "name": "setthuhoachData",
      "outputs": [
        {
          "name": "",
          "type": "bool"
        }
      ],
      "payable": false,
      "stateMutability": "nonpayable",
      "type": "function"
    },
    {
      "constant": true,
      "inputs": [
        {
          "name": "batchNo",
          "type": "address"
        }
      ],
      "name": "getthuhoachData",
      "outputs": [
        {
          "name": "cafe",
          "type": "string"
        },
        {
          "name": "nhietdo",
          "type": "string"
        },
        {
          "name": "doam",
          "type": "string"
        }
      ],
      "payable": false,
      "stateMutability": "view",
      "type": "function"
    },
    {
      "constant": false,
      "inputs": [
        {
          "name": "batchNo",
          "type": "address"
        },
        {
          "name": "_soluong",
          "type": "uint256"
        },
        {
          "name": "_diachiden",
          "type": "string"
        },
        {
          "name": "_tenship",
          "type": "string"
        },
        {
          "name": "_idship",
          "type": "string"
        },
        {
          "name": "_thoigianuoctinh",
          "type": "uint256"
        },
        {
          "name": "_sanxuat",
          "type": "string"
        }
      ],
      "name": "setvanchuyenData",
      "outputs": [
        {
          "name": "",
          "type": "bool"
        }
      ],
      "payable": false,
      "stateMutability": "nonpayable",
      "type": "function"
    },
    {
      "constant": true,
      "inputs": [
        {
          "name": "batchNo",
          "type": "address"
        }
      ],
      "name": "getvanchuyenData",
      "outputs": [
        {
          "name": "soluong",
          "type": "uint256"
        },
        {
          "name": "diachiden",
          "type": "string"
        },
        {
          "name": "tenship",
          "type": "string"
        },
        {
          "name": "idship",
          "type": "string"
        },
        {
          "name": "departureDateTime",
          "type": "uint256"
        },
        {
          "name": "thoigianuoctinh",
          "type": "uint256"
        },
        {
          "name": "sanxuat",
          "type": "string"
        }
      ],
      "payable": false,
      "stateMutability": "view",
      "type": "function"
    },
    {
      "constant": false,
      "inputs": [
        {
          "name": "batchNo",
          "type": "address"
        },
        {
          "name": "_soluong",
          "type": "uint256"
        },
        {
          "name": "_loai",
          "type": "string"
        },
        {
          "name": "_tenkho",
          "type": "string"
        },
        {
          "name": "_diachikho",
          "type": "string"
        },
        {
          "name": "_tieuthu",
          "type": "string"
        }
      ],
      "name": "setsanxuatData",
      "outputs": [
        {
          "name": "",
          "type": "bool"
        }
      ],
      "payable": false,
      "stateMutability": "nonpayable",
      "type": "function"
    },
    {
      "constant": true,
      "inputs": [
        {
          "name": "batchNo",
          "type": "address"
        }
      ],
      "name": "getsanxuatData",
      "outputs": [
        {
          "name": "soluong",
          "type": "uint256"
        },
        {
          "name": "loai",
          "type": "string"
        },
        {
          "name": "ngayden",
          "type": "uint256"
        },
        {
          "name": "tenkho",
          "type": "string"
        },
        {
          "name": "diachikho",
          "type": "string"
        },
        {
          "name": "tieuthu",
          "type": "string"
        }
      ],
      "payable": false,
      "stateMutability": "view",
      "type": "function"
    },
    {
      "constant": false,
      "inputs": [
        {
          "name": "batchNo",
          "type": "address"
        },
        {
          "name": "_soluong",
          "type": "uint256"
        },
        {
          "name": "_thoihan",
          "type": "uint256"
        },
        {
          "name": "_loai",
          "type": "string"
        }
      ],
      "name": "settieuthuData",
      "outputs": [
        {
          "name": "",
          "type": "bool"
        }
      ],
      "payable": false,
      "stateMutability": "nonpayable",
      "type": "function"
    },
    {
      "constant": true,
      "inputs": [
        {
          "name": "batchNo",
          "type": "address"
        }
      ],
      "name": "gettieuthuData",
      "outputs": [
        {
          "name": "soluong",
          "type": "uint256"
        },
        {
          "name": "ngayden",
          "type": "uint256"
        },
        {
          "name": "thoihan",
          "type": "uint256"
        },
        {
          "name": "loai",
          "type": "string"
        }
      ],
      "payable": false,
      "stateMutability": "view",
      "type": "function"
    }
  ],
  "bytecode": "0x608060405234801561001057600080fd5b50336000806101000a81548173ffffffffffffffffffffffffffffffffffffffff021916908373ffffffffffffffffffffffffffffffffffffffff1602179055506001600360003373ffffffffffffffffffffffffffffffffffffffff1673ffffffffffffffffffffffffffffffffffffffff16815260200190815260200160002060006101000a81548160ff021916908360ff1602179055507f8afeca650897be3183b7c0d24eba96a1b990f75c4bd74a0cfb2c0a71aec48e6133604051808273ffffffffffffffffffffffffffffffffffffffff1673ffffffffffffffffffffffffffffffffffffffff16815260200191505060405180910390a161567b806200011d6000396000f300608060405260043610610149576000357c0100000000000000000000000000000000000000000000000000000000900463ffffffff1680630231db2a1461014e57806305b714f8146102cb578063101bc2891461039c57806316480ab11461053057806319fb11ff146105b15780631bcd250a146107455780631f10a010146107a057806327820851146108d95780632c388d5d14610995578063381f5a05146109f05780634133f91114610b775780634516d51e14610cb05780634b842b3f14610dc95780634d6b5e0014610f685780636f77926b14611024578063715018a6146111c3578063764c07ef146111da5780638da5cb5b1461128f578063c3181402146112e6578063ca70d403146114f4578063cf37467414611621578063d3741d11146117e2578063f094d75e146119f7578063f2997d7614611b24578063f2fde38b14611d90575b600080fd5b34801561015a57600080fd5b506102b1600480360381019080803573ffffffffffffffffffffffffffffffffffffffff16906020019092919080359060200190929190803590602001908201803590602001908080601f0160208091040260200160405190810160405280939291908181526020018383808284378201915050505050509192919290803590602001908201803590602001908080601f0160208091040260200160405190810160405280939291908181526020018383808284378201915050505050509192919290803590602001908201803590602001908080601f0160208091040260200160405190810160405280939291908181526020018383808284378201915050505050509192919290803590602001908201803590602001908080601f0160208091040260200160405190810160405280939291908181526020018383808284378201915050505050509192919290505050611dd3565b604051808215151515815260200191505060405180910390f35b3480156102d757600080fd5b5061030c600480360381019080803573ffffffffffffffffffffffffffffffffffffffff16906020019092919050505061204e565b6040518085815260200184815260200183815260200180602001828103825283818151815260200191508051906020019080838360005b8381101561035e578082015181840152602081019050610343565b50505050905090810190601f16801561038b5780820380516001836020036101000a031916815260200191505b509550505050505060405180910390f35b3480156103a857600080fd5b506103dd600480360381019080803573ffffffffffffffffffffffffffffffffffffffff1690602001909291905050506121ef565b60405180806020018060200180602001848103845287818151815260200191508051906020019080838360005b8381101561042557808201518184015260208101905061040a565b50505050905090810190601f1680156104525780820380516001836020036101000a031916815260200191505b50848103835286818151815260200191508051906020019080838360005b8381101561048b578082015181840152602081019050610470565b50505050905090810190601f1680156104b85780820380516001836020036101000a031916815260200191505b50848103825285818151815260200191508051906020019080838360005b838110156104f15780820151818401526020810190506104d6565b50505050905090810190601f16801561051e5780820380516001836020036101000a031916815260200191505b50965050505050505060405180910390f35b34801561053c57600080fd5b50610597600480360381019080803590602001908201803590602001908080601f01602080910402602001604051908101604052809392919081815260200183838082843782019150505050505091929192905050506124b3565b604051808215151515815260200191505060405180910390f35b3480156105bd57600080fd5b506105f2600480360381019080803573ffffffffffffffffffffffffffffffffffffffff1690602001909291905050506124d8565b60405180806020018060200180602001848103845287818151815260200191508051906020019080838360005b8381101561063a57808201518184015260208101905061061f565b50505050905090810190601f1680156106675780820380516001836020036101000a031916815260200191505b50848103835286818151815260200191508051906020019080838360005b838110156106a0578082015181840152602081019050610685565b50505050905090810190601f1680156106cd5780820380516001836020036101000a031916815260200191505b50848103825285818151815260200191508051906020019080838360005b838110156107065780820151818401526020810190506106eb565b50505050905090810190601f1680156107335780820380516001836020036101000a031916815260200191505b50965050505050505060405180910390f35b34801561075157600080fd5b50610786600480360381019080803573ffffffffffffffffffffffffffffffffffffffff16906020019092919050505061279c565b604051808215151515815260200191505060405180910390f35b3480156107ac57600080fd5b506108bf600480360381019080803573ffffffffffffffffffffffffffffffffffffffff169060200190929190803590602001908201803590602001908080601f0160208091040260200160405190810160405280939291908181526020018383808284378201915050505050509192919290803590602001908201803590602001908080601f0160208091040260200160405190810160405280939291908181526020018383808284378201915050505050509192919290803590602001908201803590602001908080601f01602080910402602001604051908101604052809392919081815260200183838082843782019150505050505091929192908035151590602001909291905050506128be565b604051808215151515815260200191505060405180910390f35b3480156108e557600080fd5b5061091a600480360381019080803573ffffffffffffffffffffffffffffffffffffffff169060200190929190505050612cdd565b6040518080602001828103825283818151815260200191508051906020019080838360005b8381101561095a57808201518184015260208101905061093f565b50505050905090810190601f1680156109875780820380516001836020036101000a031916815260200191505b509250505060405180910390f35b3480156109a157600080fd5b506109d6600480360381019080803573ffffffffffffffffffffffffffffffffffffffff169060200190929190505050612e1c565b604051808215151515815260200191505060405180910390f35b3480156109fc57600080fd5b50610b5d600480360381019080803573ffffffffffffffffffffffffffffffffffffffff16906020019092919080359060200190929190803590602001908201803590602001908080601f0160208091040260200160405190810160405280939291908181526020018383808284378201915050505050509192919290803590602001908201803590602001908080601f0160208091040260200160405190810160405280939291908181526020018383808284378201915050505050509192919290803590602001908201803590602001908080601f016020809104026020016040519081016040528093929190818152602001838380828437820191505050505050919291929080359060200190929190803590602001908201803590602001908080601f0160208091040260200160405190810160405280939291908181526020018383808284378201915050505050509192919290505050612f3e565b604051808215151515815260200191505060405180910390f35b348015610b8357600080fd5b50610c96600480360381019080803573ffffffffffffffffffffffffffffffffffffffff169060200190929190803590602001908201803590602001908080601f0160208091040260200160405190810160405280939291908181526020018383808284378201915050505050509192919290803590602001908201803590602001908080601f0160208091040260200160405190810160405280939291908181526020018383808284378201915050505050509192919290803590602001908201803590602001908080601f01602080910402602001604051908101604052809392919081815260200183838082843782019150505050505091929192908035151590602001909291905050506131ce565b604051808215151515815260200191505060405180910390f35b348015610cbc57600080fd5b50610daf600480360381019080803590602001908201803590602001908080601f0160208091040260200160405190810160405280939291908181526020018383808284378201915050505050509192919290803590602001908201803590602001908080601f0160208091040260200160405190810160405280939291908181526020018383808284378201915050505050509192919290803590602001908201803590602001908080601f0160208091040260200160405190810160405280939291908181526020018383808284378201915050505050509192919290803515159060200190929190505050613475565b604051808215151515815260200191505060405180910390f35b348015610dd557600080fd5b50610e0a600480360381019080803573ffffffffffffffffffffffffffffffffffffffff16906020019092919050505061371b565b6040518080602001806020018060200185151515158152602001848103845288818151815260200191508051906020019080838360005b83811015610e5c578082015181840152602081019050610e41565b50505050905090810190601f168015610e895780820380516001836020036101000a031916815260200191505b50848103835287818151815260200191508051906020019080838360005b83811015610ec2578082015181840152602081019050610ea7565b50505050905090810190601f168015610eef5780820380516001836020036101000a031916815260200191505b50848103825286818151815260200191508051906020019080838360005b83811015610f28578082015181840152602081019050610f0d565b50505050905090810190601f168015610f555780820380516001836020036101000a031916815260200191505b5097505050505050505060405180910390f35b348015610f7457600080fd5b50610fa9600480360381019080803573ffffffffffffffffffffffffffffffffffffffff169060200190929190505050613789565b6040518080602001828103825283818151815260200191508051906020019080838360005b83811015610fe9578082015181840152602081019050610fce565b50505050905090810190601f1680156110165780820380516001836020036101000a031916815260200191505b509250505060405180910390f35b34801561103057600080fd5b50611065600480360381019080803573ffffffffffffffffffffffffffffffffffffffff1690602001909291905050506138c8565b6040518080602001806020018060200185151515158152602001848103845288818151815260200191508051906020019080838360005b838110156110b757808201518184015260208101905061109c565b50505050905090810190601f1680156110e45780820380516001836020036101000a031916815260200191505b50848103835287818151815260200191508051906020019080838360005b8381101561111d578082015181840152602081019050611102565b50505050905090810190601f16801561114a5780820380516001836020036101000a031916815260200191505b50848103825286818151815260200191508051906020019080838360005b83811015611183578082015181840152602081019050611168565b50505050905090810190601f1680156111b05780820380516001836020036101000a031916815260200191505b5097505050505050505060405180910390f35b3480156111cf57600080fd5b506111d8613be1565b005b3480156111e657600080fd5b50611275600480360381019080803573ffffffffffffffffffffffffffffffffffffffff1690602001909291908035906020019092919080359060200190929190803590602001908201803590602001908080601f0160208091040260200160405190810160405280939291908181526020018383808284378201915050505050509192919290505050613ce3565b604051808215151515815260200191505060405180910390f35b34801561129b57600080fd5b506112a4613eaa565b604051808273ffffffffffffffffffffffffffffffffffffffff1673ffffffffffffffffffffffffffffffffffffffff16815260200191505060405180910390f35b3480156112f257600080fd5b50611327600480360381019080803573ffffffffffffffffffffffffffffffffffffffff169060200190929190505050613ecf565b604051808781526020018060200186815260200180602001806020018060200185810385528a818151815260200191508051906020019080838360005b8381101561137f578082015181840152602081019050611364565b50505050905090810190601f1680156113ac5780820380516001836020036101000a031916815260200191505b50858103845288818151815260200191508051906020019080838360005b838110156113e55780820151818401526020810190506113ca565b50505050905090810190601f1680156114125780820380516001836020036101000a031916815260200191505b50858103835287818151815260200191508051906020019080838360005b8381101561144b578082015181840152602081019050611430565b50505050905090810190601f1680156114785780820380516001836020036101000a031916815260200191505b50858103825286818151815260200191508051906020019080838360005b838110156114b1578082015181840152602081019050611496565b50505050905090810190601f1680156114de5780820380516001836020036101000a031916815260200191505b509a505050505050505050505060405180910390f35b34801561150057600080fd5b50611607600480360381019080803573ffffffffffffffffffffffffffffffffffffffff169060200190929190803590602001908201803590602001908080601f0160208091040260200160405190810160405280939291908181526020018383808284378201915050505050509192919290803590602001908201803590602001908080601f0160208091040260200160405190810160405280939291908181526020018383808284378201915050505050509192919290803590602001908201803590602001908080601f0160208091040260200160405190810160405280939291908181526020018383808284378201915050505050509192919290505050614269565b604051808215151515815260200191505060405180910390f35b34801561162d57600080fd5b506117a0600480360381019080803590602001908201803590602001908080601f0160208091040260200160405190810160405280939291908181526020018383808284378201915050505050509192919290803590602001908201803590602001908080601f0160208091040260200160405190810160405280939291908181526020018383808284378201915050505050509192919290803590602001908201803590602001908080601f0160208091040260200160405190810160405280939291908181526020018383808284378201915050505050509192919290803590602001908201803590602001908080601f0160208091040260200160405190810160405280939291908181526020018383808284378201915050505050509192919290803590602001908201803590602001908080601f0160208091040260200160405190810160405280939291908181526020018383808284378201915050505050509192919290505050614478565b604051808273ffffffffffffffffffffffffffffffffffffffff1673ffffffffffffffffffffffffffffffffffffffff16815260200191505060405180910390f35b3480156117ee57600080fd5b50611823600480360381019080803573ffffffffffffffffffffffffffffffffffffffff1690602001909291905050506147bc565b604051808881526020018060200180602001806020018781526020018681526020018060200185810385528b818151815260200191508051906020019080838360005b83811015611881578082015181840152602081019050611866565b50505050905090810190601f1680156118ae5780820380516001836020036101000a031916815260200191505b5085810384528a818151815260200191508051906020019080838360005b838110156118e75780820151818401526020810190506118cc565b50505050905090810190601f1680156119145780820380516001836020036101000a031916815260200191505b50858103835289818151815260200191508051906020019080838360005b8381101561194d578082015181840152602081019050611932565b50505050905090810190601f16801561197a5780820380516001836020036101000a031916815260200191505b50858103825286818151815260200191508051906020019080838360005b838110156119b3578082015181840152602081019050611998565b50505050905090810190601f1680156119e05780820380516001836020036101000a031916815260200191505b509b50505050505050505050505060405180910390f35b348015611a0357600080fd5b50611b0a600480360381019080803573ffffffffffffffffffffffffffffffffffffffff169060200190929190803590602001908201803590602001908080601f0160208091040260200160405190810160405280939291908181526020018383808284378201915050505050509192919290803590602001908201803590602001908080601f0160208091040260200160405190810160405280939291908181526020018383808284378201915050505050509192919290803590602001908201803590602001908080601f0160208091040260200160405190810160405280939291908181526020018383808284378201915050505050509192919290505050614b6a565b604051808215151515815260200191505060405180910390f35b348015611b3057600080fd5b50611b65600480360381019080803573ffffffffffffffffffffffffffffffffffffffff169060200190929190505050614d79565b60405180806020018060200180602001806020018060200186810386528b818151815260200191508051906020019080838360005b83811015611bb5578082015181840152602081019050611b9a565b50505050905090810190601f168015611be25780820380516001836020036101000a031916815260200191505b5086810385528a818151815260200191508051906020019080838360005b83811015611c1b578082015181840152602081019050611c00565b50505050905090810190601f168015611c485780820380516001836020036101000a031916815260200191505b50868103845289818151815260200191508051906020019080838360005b83811015611c81578082015181840152602081019050611c66565b50505050905090810190601f168015611cae5780820380516001836020036101000a031916815260200191505b50868103835288818151815260200191508051906020019080838360005b83811015611ce7578082015181840152602081019050611ccc565b50505050905090810190601f168015611d145780820380516001836020036101000a031916815260200191505b50868103825287818151815260200191508051906020019080838360005b83811015611d4d578082015181840152602081019050611d32565b50505050905090810190601f168015611d7a5780820380516001836020036101000a031916815260200191505b509a505050505050505050505060405180910390f35b348015611d9c57600080fd5b50611dd1600480360381019080803573ffffffffffffffffffffffffffffffffffffffff16906020019092919050505061519a565b005b6000611dde336152ef565b1515611de957600080fd5b856020600001819055508460206002019080519060200190611e0c9291906153ed565b50426020600101819055508360206003019080519060200190611e309291906153ed565b508260206004019080519060200190611e4a9291906153ed565b508160206005019080519060200190611e649291906153ed565b506020600860008973ffffffffffffffffffffffffffffffffffffffff1673ffffffffffffffffffffffffffffffffffffffff168152602001908152602001600020600082015481600001556001820154816001015560028201816002019080546001816001161561010002031660029004611ee192919061546d565b5060038201816003019080546001816001161561010002031660029004611f0992919061546d565b5060048201816004019080546001816001161561010002031660029004611f3192919061546d565b5060058201816005019080546001816001161561010002031660029004611f5992919061546d565b509050506040805190810160405280600781526020017f7469657574687500000000000000000000000000000000000000000000000000815250600a60008973ffffffffffffffffffffffffffffffffffffffff1673ffffffffffffffffffffffffffffffffffffffff1681526020019081526020016000209080519060200190611fe59291906153ed565b508673ffffffffffffffffffffffffffffffffffffffff163373ffffffffffffffffffffffffffffffffffffffff167f62e9805d85aff4073757a7741f6ad4a1364609fbd96bd2a4ab275325749233a260405160405180910390a3600190509695505050505050565b6000806000606061205d6154f4565b6001600360003373ffffffffffffffffffffffffffffffffffffffff1673ffffffffffffffffffffffffffffffffffffffff16815260200190815260200160002060009054906101000a900460ff1660ff161415156120bb57600080fd5b600960008773ffffffffffffffffffffffffffffffffffffffff1673ffffffffffffffffffffffffffffffffffffffff16815260200190815260200160002060806040519081016040529081600082015481526020016001820154815260200160028201548152602001600382018054600181600116156101000203166002900480601f0160208091040260200160405190810160405280929190818152602001828054600181600116156101000203166002900480156121bd5780601f10612192576101008083540402835291602001916121bd565b820191906000526020600020905b8154815290600101906020018083116121a057829003601f168201915b505050505081525050905080600001518160200151826040015183606001518090509450945094509450509193509193565b60608060606121fc61551d565b6001600360003373ffffffffffffffffffffffffffffffffffffffff1673ffffffffffffffffffffffffffffffffffffffff16815260200190815260200160002060009054906101000a900460ff1660ff1614151561225a57600080fd5b600560008673ffffffffffffffffffffffffffffffffffffffff1673ffffffffffffffffffffffffffffffffffffffff16815260200190815260200160002060606040519081016040529081600082018054600181600116156101000203166002900480601f01602080910402602001604051908101604052809291908181526020018280546001816001161561010002031660029004801561233e5780601f106123135761010080835404028352916020019161233e565b820191906000526020600020905b81548152906001019060200180831161232157829003601f168201915b50505050508152602001600182018054600181600116156101000203166002900480601f0160208091040260200160405190810160405280929190818152602001828054600181600116156101000203166002900480156123e05780601f106123b5576101008083540402835291602001916123e0565b820191906000526020600020905b8154815290600101906020018083116123c357829003601f168201915b50505050508152602001600282018054600181600116156101000203166002900480601f0160208091040260200160405190810160405280929190818152602001828054600181600116156101000203166002900480156124825780601f1061245757610100808354040283529160200191612482565b820191906000526020600020905b81548152906001019060200180831161246557829003601f168201915b5050505050815250509050806000015181602001518260400151829250819150809050935093509350509193909250565b600060608290506000815114156124cd57600191506124d2565b600091505b50919050565b60608060606124e561553f565b6001600360003373ffffffffffffffffffffffffffffffffffffffff1673ffffffffffffffffffffffffffffffffffffffff16815260200190815260200160002060009054906101000a900460ff1660ff1614151561254357600080fd5b600660008673ffffffffffffffffffffffffffffffffffffffff1673ffffffffffffffffffffffffffffffffffffffff16815260200190815260200160002060606040519081016040529081600082018054600181600116156101000203166002900480601f0160208091040260200160405190810160405280929190818152602001828054600181600116156101000203166002900480156126275780601f106125fc57610100808354040283529160200191612627565b820191906000526020600020905b81548152906001019060200180831161260a57829003601f168201915b50505050508152602001600182018054600181600116156101000203166002900480601f0160208091040260200160405190810160405280929190818152602001828054600181600116156101000203166002900480156126c95780601f1061269e576101008083540402835291602001916126c9565b820191906000526020600020905b8154815290600101906020018083116126ac57829003601f168201915b50505050508152602001600282018054600181600116156101000203166002900480601f01602080910402602001604051908101604052809291908181526020018280546001816001161561010002031660029004801561276b5780601f106127405761010080835404028352916020019161276b565b820191906000526020600020905b81548152906001019060200180831161274e57829003601f168201915b5050505050815250509050806000015181602001518260400151829250819150809050935093509350509193909250565b60008060009054906101000a900473ffffffffffffffffffffffffffffffffffffffff1673ffffffffffffffffffffffffffffffffffffffff163373ffffffffffffffffffffffffffffffffffffffff161415156127f957600080fd5b6000600360008473ffffffffffffffffffffffffffffffffffffffff1673ffffffffffffffffffffffffffffffffffffffff16815260200190815260200160002060006101000a81548160ff021916908360ff1602179055507f9e8ca6ff03906e81e8a6a03d4f96b7edb0b97f0ed9d07ef1b699fff63438549682604051808273ffffffffffffffffffffffffffffffffffffffff1673ffffffffffffffffffffffffffffffffffffffff16815260200191505060405180910390a160019050919050565b60006001600360003373ffffffffffffffffffffffffffffffffffffffff1673ffffffffffffffffffffffffffffffffffffffff16815260200190815260200160002060009054906101000a900460ff1660ff1614151561291e57600080fd5b84600b60000190805190602001906129379291906153ed565b5083600b60010190805190602001906129519291906153ed565b5081600b60020160006101000a81548160ff021916908315150217905550600b600160008873ffffffffffffffffffffffffffffffffffffffff1673ffffffffffffffffffffffffffffffffffffffff168152602001908152602001600020600082018160000190805460018160011615610100020316600290046129d792919061546d565b50600182018160010190805460018160011615610100020316600290046129ff92919061546d565b506002820160009054906101000a900460ff168160020160006101000a81548160ff02191690831515021790555090505082600260008873ffffffffffffffffffffffffffffffffffffffff1673ffffffffffffffffffffffffffffffffffffffff1681526020019081526020016000209080519060200190612a839291906153ed565b508573ffffffffffffffffffffffffffffffffffffffff167f4190f2c62c8794b65d58c651087f5d40a3993f92491edde1514b2988f5c3dccd868686866040518080602001806020018060200185151515158152602001848103845288818151815260200191508051906020019080838360005b83811015612b12578082015181840152602081019050612af7565b50505050905090810190601f168015612b3f5780820380516001836020036101000a031916815260200191505b50848103835287818151815260200191508051906020019080838360005b83811015612b78578082015181840152602081019050612b5d565b50505050905090810190601f168015612ba55780820380516001836020036101000a031916815260200191505b50848103825286818151815260200191508051906020019080838360005b83811015612bde578082015181840152602081019050612bc3565b50505050905090810190601f168015612c0b5780820380516001836020036101000a031916815260200191505b5097505050505050505060405180910390a28573ffffffffffffffffffffffffffffffffffffffff167f3b419384c2ac88d62e2daac72f8c6e6398c474d91c63e814a307e3641762c8de846040518080602001828103825283818151815260200191508051906020019080838360005b83811015612c96578082015181840152602081019050612c7b565b50505050905090810190601f168015612cc35780820380516001836020036101000a031916815260200191505b509250505060405180910390a26001905095945050505050565b60606001600360003373ffffffffffffffffffffffffffffffffffffffff1673ffffffffffffffffffffffffffffffffffffffff16815260200190815260200160002060009054906101000a900460ff1660ff16141515612d3d57600080fd5b600260008373ffffffffffffffffffffffffffffffffffffffff1673ffffffffffffffffffffffffffffffffffffffff1681526020019081526020016000208054600181600116156101000203166002900480601f016020809104026020016040519081016040528092919081815260200182805460018160011615610100020316600290048015612e105780601f10612de557610100808354040283529160200191612e10565b820191906000526020600020905b815481529060010190602001808311612df357829003601f168201915b50505050509050919050565b60008060009054906101000a900473ffffffffffffffffffffffffffffffffffffffff1673ffffffffffffffffffffffffffffffffffffffff163373ffffffffffffffffffffffffffffffffffffffff16141515612e7957600080fd5b6001600360008473ffffffffffffffffffffffffffffffffffffffff1673ffffffffffffffffffffffffffffffffffffffff16815260200190815260200160002060006101000a81548160ff021916908360ff1602179055507f8afeca650897be3183b7c0d24eba96a1b990f75c4bd74a0cfb2c0a71aec48e6182604051808273ffffffffffffffffffffffffffffffffffffffff1673ffffffffffffffffffffffffffffffffffffffff16815260200191505060405180910390a160019050919050565b6000612f49336152ef565b1515612f5457600080fd5b866019600301819055508560196000019080519060200190612f779291906153ed565b508460196001019080519060200190612f919291906153ed565b508360196002019080519060200190612fab9291906153ed565b5042601960040181905550826019600501819055508160196006019080519060200190612fd99291906153ed565b506019600760008a73ffffffffffffffffffffffffffffffffffffffff1673ffffffffffffffffffffffffffffffffffffffff1681526020019081526020016000206000820181600001908054600181600116156101000203166002900461304292919061546d565b506001820181600101908054600181600116156101000203166002900461306a92919061546d565b506002820181600201908054600181600116156101000203166002900461309292919061546d565b50600382015481600301556004820154816004015560058201548160050155600682018160060190805460018160011615610100020316600290046130d892919061546d565b509050506040805190810160405280600781526020017f73616e7875617400000000000000000000000000000000000000000000000000815250600a60008a73ffffffffffffffffffffffffffffffffffffffff1673ffffffffffffffffffffffffffffffffffffffff16815260200190815260200160002090805190602001906131649291906153ed565b508773ffffffffffffffffffffffffffffffffffffffff163373ffffffffffffffffffffffffffffffffffffffff167f8a6a53fa5cad9b2d9b826e2c4a1b9e35fb72668c159019e56658bb914614948a60405160405180910390a360019050979650505050505050565b600080600073ffffffffffffffffffffffffffffffffffffffff168773ffffffffffffffffffffffffffffffffffffffff161415151561320d57600080fd5b61321a87878787876128be565b90508673ffffffffffffffffffffffffffffffffffffffff167f4190f2c62c8794b65d58c651087f5d40a3993f92491edde1514b2988f5c3dccd878787876040518080602001806020018060200185151515158152602001848103845288818151815260200191508051906020019080838360005b838110156132aa57808201518184015260208101905061328f565b50505050905090810190601f1680156132d75780820380516001836020036101000a031916815260200191505b50848103835287818151815260200191508051906020019080838360005b838110156133105780820151818401526020810190506132f5565b50505050905090810190601f16801561333d5780820380516001836020036101000a031916815260200191505b50848103825286818151815260200191508051906020019080838360005b8381101561337657808201518184015260208101905061335b565b50505050905090810190601f1680156133a35780820380516001836020036101000a031916815260200191505b5097505050505050505060405180910390a28673ffffffffffffffffffffffffffffffffffffffff167f3b419384c2ac88d62e2daac72f8c6e6398c474d91c63e814a307e3641762c8de856040518080602001828103825283818151815260200191508051906020019080838360005b8381101561342e578082015181840152602081019050613413565b50505050905090810190601f16801561345b5780820380516001836020036101000a031916815260200191505b509250505060405180910390a28091505095945050505050565b600080600073ffffffffffffffffffffffffffffffffffffffff163373ffffffffffffffffffffffffffffffffffffffff16141515156134b457600080fd5b6134c133878787876128be565b90503373ffffffffffffffffffffffffffffffffffffffff167f4190f2c62c8794b65d58c651087f5d40a3993f92491edde1514b2988f5c3dccd878787876040518080602001806020018060200185151515158152602001848103845288818151815260200191508051906020019080838360005b83811015613551578082015181840152602081019050613536565b50505050905090810190601f16801561357e5780820380516001836020036101000a031916815260200191505b50848103835287818151815260200191508051906020019080838360005b838110156135b757808201518184015260208101905061359c565b50505050905090810190601f1680156135e45780820380516001836020036101000a031916815260200191505b50848103825286818151815260200191508051906020019080838360005b8381101561361d578082015181840152602081019050613602565b50505050905090810190601f16801561364a5780820380516001836020036101000a031916815260200191505b5097505050505050505060405180910390a23373ffffffffffffffffffffffffffffffffffffffff167f3b419384c2ac88d62e2daac72f8c6e6398c474d91c63e814a307e3641762c8de856040518080602001828103825283818151815260200191508051906020019080838360005b838110156136d55780820151818401526020810190506136ba565b50505050905090810190601f1680156137025780820380516001836020036101000a031916815260200191505b509250505060405180910390a280915050949350505050565b606080606060008073ffffffffffffffffffffffffffffffffffffffff168573ffffffffffffffffffffffffffffffffffffffff161415151561375d57600080fd5b613766856138c8565b809450819550829650839750505050508383838393509350935093509193509193565b60606001600360003373ffffffffffffffffffffffffffffffffffffffff1673ffffffffffffffffffffffffffffffffffffffff16815260200190815260200160002060009054906101000a900460ff1660ff161415156137e957600080fd5b600a60008373ffffffffffffffffffffffffffffffffffffffff1673ffffffffffffffffffffffffffffffffffffffff1681526020019081526020016000208054600181600116156101000203166002900480601f0160208091040260200160405190810160405280929190818152602001828054600181600116156101000203166002900480156138bc5780601f10613891576101008083540402835291602001916138bc565b820191906000526020600020905b81548152906001019060200180831161389f57829003601f168201915b50505050509050919050565b606080606060006138d7615561565b6001600360003373ffffffffffffffffffffffffffffffffffffffff1673ffffffffffffffffffffffffffffffffffffffff16815260200190815260200160002060009054906101000a900460ff1660ff1614151561393557600080fd5b600160008773ffffffffffffffffffffffffffffffffffffffff1673ffffffffffffffffffffffffffffffffffffffff16815260200190815260200160002060606040519081016040529081600082018054600181600116156101000203166002900480601f016020809104026020016040519081016040528092919081815260200182805460018160011615610100020316600290048015613a195780601f106139ee57610100808354040283529160200191613a19565b820191906000526020600020905b8154815290600101906020018083116139fc57829003601f168201915b50505050508152602001600182018054600181600116156101000203166002900480601f016020809104026020016040519081016040528092919081815260200182805460018160011615610100020316600290048015613abb5780601f10613a9057610100808354040283529160200191613abb565b820191906000526020600020905b815481529060010190602001808311613a9e57829003601f168201915b505050505081526020016002820160009054906101000a900460ff161515151581525050905080600001518160200151600260008973ffffffffffffffffffffffffffffffffffffffff1673ffffffffffffffffffffffffffffffffffffffff1681526020019081526020016000208360400151839350829250818054600181600116156101000203166002900480601f016020809104026020016040519081016040528092919081815260200182805460018160011615610100020316600290048015613bca5780601f10613b9f57610100808354040283529160200191613bca565b820191906000526020600020905b815481529060010190602001808311613bad57829003601f168201915b505050505091509450945094509450509193509193565b6000809054906101000a900473ffffffffffffffffffffffffffffffffffffffff1673ffffffffffffffffffffffffffffffffffffffff163373ffffffffffffffffffffffffffffffffffffffff16141515613c3c57600080fd5b6000809054906101000a900473ffffffffffffffffffffffffffffffffffffffff1673ffffffffffffffffffffffffffffffffffffffff167ff8df31144d9c2f0f6b59d69b8b98abd5459d07f2742c4df920b25aae33c6482060405160405180910390a260008060006101000a81548173ffffffffffffffffffffffffffffffffffffffff021916908373ffffffffffffffffffffffffffffffffffffffff160217905550565b6000613cee336152ef565b1515613cf957600080fd5b8360266000018190555042602660010181905550826026600201819055508160266003019080519060200190613d309291906153ed565b506026600960008773ffffffffffffffffffffffffffffffffffffffff1673ffffffffffffffffffffffffffffffffffffffff16815260200190815260200160002060008201548160000155600182015481600101556002820154816002015560038201816003019080546001816001161561010002031660029004613db792919061546d565b509050506040805190810160405280600481526020017f444f4e4500000000000000000000000000000000000000000000000000000000815250600a60008773ffffffffffffffffffffffffffffffffffffffff1673ffffffffffffffffffffffffffffffffffffffff1681526020019081526020016000209080519060200190613e439291906153ed565b508473ffffffffffffffffffffffffffffffffffffffff163373ffffffffffffffffffffffffffffffffffffffff167ff4841a3022647eabbaaada012c3b9b91b1c2e6ecaa5fdbbac6836a309dcda69260405160405180910390a360019050949350505050565b6000809054906101000a900473ffffffffffffffffffffffffffffffffffffffff1681565b6000606060006060806060613ee2615585565b6001600360003373ffffffffffffffffffffffffffffffffffffffff1673ffffffffffffffffffffffffffffffffffffffff16815260200190815260200160002060009054906101000a900460ff1660ff16141515613f4057600080fd5b600860008973ffffffffffffffffffffffffffffffffffffffff1673ffffffffffffffffffffffffffffffffffffffff16815260200190815260200160002060c060405190810160405290816000820154815260200160018201548152602001600282018054600181600116156101000203166002900480601f0160208091040260200160405190810160405280929190818152602001828054600181600116156101000203166002900480156140385780601f1061400d57610100808354040283529160200191614038565b820191906000526020600020905b81548152906001019060200180831161401b57829003601f168201915b50505050508152602001600382018054600181600116156101000203166002900480601f0160208091040260200160405190810160405280929190818152602001828054600181600116156101000203166002900480156140da5780601f106140af576101008083540402835291602001916140da565b820191906000526020600020905b8154815290600101906020018083116140bd57829003601f168201915b50505050508152602001600482018054600181600116156101000203166002900480601f01602080910402602001604051908101604052809291908181526020018280546001816001161561010002031660029004801561417c5780601f106141515761010080835404028352916020019161417c565b820191906000526020600020905b81548152906001019060200180831161415f57829003601f168201915b50505050508152602001600582018054600181600116156101000203166002900480601f01602080910402602001604051908101604052809291908181526020018280546001816001161561010002031660029004801561421e5780601f106141f35761010080835404028352916020019161421e565b820191906000526020600020905b81548152906001019060200180831161420157829003601f168201915b5050505050815250509050806000015181604001518260200151836060015184608001518560a001518494508292508191508090509650965096509650965096505091939550919395565b6000614274336152ef565b151561427f57600080fd5b83601660000190805190602001906142989291906153ed565b5082601660010190805190602001906142b29291906153ed565b5081601660020190805190602001906142cc9291906153ed565b506016600660008773ffffffffffffffffffffffffffffffffffffffff1673ffffffffffffffffffffffffffffffffffffffff1681526020019081526020016000206000820181600001908054600181600116156101000203166002900461433592919061546d565b506001820181600101908054600181600116156101000203166002900461435d92919061546d565b506002820181600201908054600181600116156101000203166002900461438592919061546d565b509050506040805190810160405280600981526020017f76616e63687579656e0000000000000000000000000000000000000000000000815250600a60008773ffffffffffffffffffffffffffffffffffffffff1673ffffffffffffffffffffffffffffffffffffffff16815260200190815260200160002090805190602001906144119291906153ed565b508473ffffffffffffffffffffffffffffffffffffffff163373ffffffffffffffffffffffffffffffffffffffff167f72dfdb4d8979344586b198793d40c501561659bb462270a95be256e2c1cefdfa60405160405180910390a360019050949350505050565b60008060006001600360003373ffffffffffffffffffffffffffffffffffffffff1673ffffffffffffffffffffffffffffffffffffffff16815260200190815260200160002060009054906101000a900460ff1660ff161415156144db57600080fd5b3342604051808373ffffffffffffffffffffffffffffffffffffffff1673ffffffffffffffffffffffffffffffffffffffff166c0100000000000000000000000002815260140182815260200192505050604051809103902060019004915081905087600e60000190805190602001906145569291906153ed565b5086600e60010190805190602001906145709291906153ed565b5085600e600201908051906020019061458a9291906153ed565b5084600e60030190805190602001906145a49291906153ed565b5083600e60040190805190602001906145be9291906153ed565b50600e600460008373ffffffffffffffffffffffffffffffffffffffff1673ffffffffffffffffffffffffffffffffffffffff1681526020019081526020016000206000820181600001908054600181600116156101000203166002900461462792919061546d565b506001820181600101908054600181600116156101000203166002900461464f92919061546d565b506002820181600201908054600181600116156101000203166002900461467792919061546d565b506003820181600301908054600181600116156101000203166002900461469f92919061546d565b50600482018160040190805460018160011615610100020316600290046146c792919061546d565b509050506040805190810160405280600881526020017f6e6f6e6774726169000000000000000000000000000000000000000000000000815250600a60008373ffffffffffffffffffffffffffffffffffffffff1673ffffffffffffffffffffffffffffffffffffffff16815260200190815260200160002090805190602001906147539291906153ed565b508073ffffffffffffffffffffffffffffffffffffffff163373ffffffffffffffffffffffffffffffffffffffff167ffb0cd0976d848f2ad8c4a6963c1295c96186b2f3919c8204b4fcb350fc36a31f60405160405180910390a3809250505095945050505050565b6000606080606060008060606147d06155bc565b6001600360003373ffffffffffffffffffffffffffffffffffffffff1673ffffffffffffffffffffffffffffffffffffffff16815260200190815260200160002060009054906101000a900460ff1660ff1614151561482e57600080fd5b600760008a73ffffffffffffffffffffffffffffffffffffffff1673ffffffffffffffffffffffffffffffffffffffff16815260200190815260200160002060e06040519081016040529081600082018054600181600116156101000203166002900480601f0160208091040260200160405190810160405280929190818152602001828054600181600116156101000203166002900480156149125780601f106148e757610100808354040283529160200191614912565b820191906000526020600020905b8154815290600101906020018083116148f557829003601f168201915b50505050508152602001600182018054600181600116156101000203166002900480601f0160208091040260200160405190810160405280929190818152602001828054600181600116156101000203166002900480156149b45780601f10614989576101008083540402835291602001916149b4565b820191906000526020600020905b81548152906001019060200180831161499757829003601f168201915b50505050508152602001600282018054600181600116156101000203166002900480601f016020809104026020016040519081016040528092919081815260200182805460018160011615610100020316600290048015614a565780601f10614a2b57610100808354040283529160200191614a56565b820191906000526020600020905b815481529060010190602001808311614a3957829003601f168201915b50505050508152602001600382015481526020016004820154815260200160058201548152602001600682018054600181600116156101000203166002900480601f016020809104026020016040519081016040528092919081815260200182805460018160011615610100020316600290048015614b165780601f10614aeb57610100808354040283529160200191614b16565b820191906000526020600020905b815481529060010190602001808311614af957829003601f168201915b5050505050815250509050806060015181600001518260200151836040015184608001518560a001518660c00151859550849450839350809050975097509750975097509750975050919395979092949650565b6000614b75336152ef565b1515614b8057600080fd5b8360136000019080519060200190614b999291906153ed565b508260136001019080519060200190614bb39291906153ed565b508160136002019080519060200190614bcd9291906153ed565b506013600560008773ffffffffffffffffffffffffffffffffffffffff1673ffffffffffffffffffffffffffffffffffffffff16815260200190815260200160002060008201816000019080546001816001161561010002031660029004614c3692919061546d565b5060018201816001019080546001816001161561010002031660029004614c5e92919061546d565b5060028201816002019080546001816001161561010002031660029004614c8692919061546d565b509050506040805190810160405280600881526020017f746875686f616368000000000000000000000000000000000000000000000000815250600a60008773ffffffffffffffffffffffffffffffffffffffff1673ffffffffffffffffffffffffffffffffffffffff1681526020019081526020016000209080519060200190614d129291906153ed565b508473ffffffffffffffffffffffffffffffffffffffff163373ffffffffffffffffffffffffffffffffffffffff167f2b56ee0c9539cb53578494c390c90c08c815e936b342a3d940feacc417b660ed60405160405180910390a360019050949350505050565b6060806060806060614d896155fa565b6001600360003373ffffffffffffffffffffffffffffffffffffffff1673ffffffffffffffffffffffffffffffffffffffff16815260200190815260200160002060009054906101000a900460ff1660ff16141515614de757600080fd5b600460008873ffffffffffffffffffffffffffffffffffffffff1673ffffffffffffffffffffffffffffffffffffffff16815260200190815260200160002060a06040519081016040529081600082018054600181600116156101000203166002900480601f016020809104026020016040519081016040528092919081815260200182805460018160011615610100020316600290048015614ecb5780601f10614ea057610100808354040283529160200191614ecb565b820191906000526020600020905b815481529060010190602001808311614eae57829003601f168201915b50505050508152602001600182018054600181600116156101000203166002900480601f016020809104026020016040519081016040528092919081815260200182805460018160011615610100020316600290048015614f6d5780601f10614f4257610100808354040283529160200191614f6d565b820191906000526020600020905b815481529060010190602001808311614f5057829003601f168201915b50505050508152602001600282018054600181600116156101000203166002900480601f01602080910402602001604051908101604052809291908181526020018280546001816001161561010002031660029004801561500f5780601f10614fe45761010080835404028352916020019161500f565b820191906000526020600020905b815481529060010190602001808311614ff257829003601f168201915b50505050508152602001600382018054600181600116156101000203166002900480601f0160208091040260200160405190810160405280929190818152602001828054600181600116156101000203166002900480156150b15780601f10615086576101008083540402835291602001916150b1565b820191906000526020600020905b81548152906001019060200180831161509457829003601f168201915b50505050508152602001600482018054600181600116156101000203166002900480601f0160208091040260200160405190810160405280929190818152602001828054600181600116156101000203166002900480156151535780601f1061512857610100808354040283529160200191615153565b820191906000526020600020905b81548152906001019060200180831161513657829003601f168201915b505050505081525050905080600001518160200151826040015183606001518460800151849450839350829250819150809050955095509550955095505091939590929450565b6000809054906101000a900473ffffffffffffffffffffffffffffffffffffffff1673ffffffffffffffffffffffffffffffffffffffff163373ffffffffffffffffffffffffffffffffffffffff161415156151f557600080fd5b600073ffffffffffffffffffffffffffffffffffffffff168173ffffffffffffffffffffffffffffffffffffffff161415151561523157600080fd5b8073ffffffffffffffffffffffffffffffffffffffff166000809054906101000a900473ffffffffffffffffffffffffffffffffffffffff1673ffffffffffffffffffffffffffffffffffffffff167f8be0079c531659141344cd1fd0a4f28419497f9722a3daafe3b4186f6b6457e060405160405180910390a3806000806101000a81548173ffffffffffffffffffffffffffffffffffffffff021916908373ffffffffffffffffffffffffffffffffffffffff16021790555050565b60006153d4600160008473ffffffffffffffffffffffffffffffffffffffff1673ffffffffffffffffffffffffffffffffffffffff1681526020019081526020016000206000018054600181600116156101000203166002900480601f0160208091040260200160405190810160405280929190818152602001828054600181600116156101000203166002900480156153ca5780601f1061539f576101008083540402835291602001916153ca565b820191906000526020600020905b8154815290600101906020018083116153ad57829003601f168201915b50505050506124b3565b15156153e357600190506153e8565b600090505b919050565b828054600181600116156101000203166002900490600052602060002090601f016020900481019282601f1061542e57805160ff191683800117855561545c565b8280016001018555821561545c579182015b8281111561545b578251825591602001919060010190615440565b5b509050615469919061562a565b5090565b828054600181600116156101000203166002900490600052602060002090601f016020900481019282601f106154a657805485556154e3565b828001600101855582156154e357600052602060002091601f016020900482015b828111156154e25782548255916001019190600101906154c7565b5b5090506154f0919061562a565b5090565b608060405190810160405280600081526020016000815260200160008152602001606081525090565b6060604051908101604052806060815260200160608152602001606081525090565b6060604051908101604052806060815260200160608152602001606081525090565b60606040519081016040528060608152602001606081526020016000151581525090565b60c0604051908101604052806000815260200160008152602001606081526020016060815260200160608152602001606081525090565b60e060405190810160405280606081526020016060815260200160608152602001600081526020016000815260200160008152602001606081525090565b60a06040519081016040528060608152602001606081526020016060815260200160608152602001606081525090565b61564c91905b80821115615648576000816000905550600101615630565b5090565b905600a165627a7a723058204a505dd660c0eaafda965d68ef8905d24e4b0762e427f7dbd9c4adcb57ff1c1f0029",
  "source": "pragma solidity ^0.4.23;\n\nimport \"./SupplyChainStorageOwnable.sol\";\n\ncontract SupplyChainCafe is SupplyChainStorageOwnable {\n\n    constructor() public {\n        authorizedCaller[msg.sender] = 1;\n        emit AuthorizedCaller(msg.sender);\n    }\n\n    /* Events */\n    event AuthorizedCaller(address caller);\n    event DeAuthorizedCaller(address caller);\n\n    event PerformCultivation(address indexed user, address indexed batchNo);\n    event DoneNongTrai(address indexed user, address indexed batchNo);\n    event DoneThuhoach(address indexed user, address indexed batchNo);\n    event DoneVanchuyen(address indexed user, address indexed batchNo);\n    event DoneSanxuat(address indexed user, address indexed batchNo);\n    event DoneTieuthu(address indexed user, address indexed batchNo);\n\n\n    event UserUpdate(address indexed user, string name, string contactNo, string role, bool isActive);\n    event UserRoleUpdate(address indexed user, string role);\n    /* Modifiers */\n\n    modifier onlyAuthCaller(){\n        require(authorizedCaller[msg.sender] == 1);\n        _;\n    }\n\n    /* User Related */\n    struct user {\n        string name;\n        string contactNo;\n        bool isActive;\n    }\n\n    mapping(address => user) userDetails;\n    mapping(address => string) userRole;\n\n    /* Caller Mapping */\n    mapping(address => uint8) authorizedCaller;\n\n    /* authorize caller */\n    function authorizeCaller(address _caller) public onlyOwner returns(bool)\n    {\n        authorizedCaller[_caller] = 1;\n        emit AuthorizedCaller(_caller);\n        return true;\n    }\n\n    /* deauthorize caller */\n    function deAuthorizeCaller(address _caller) public onlyOwner returns(bool)\n    {\n        authorizedCaller[_caller] = 0;\n        emit DeAuthorizedCaller(_caller);\n        return true;\n    }\n\n    /*User Roles\n        SUPER_ADMIN,\n        FARM_INSPECTION,\n        thuhoach,\n        vanchuyen,\n        sanxuat,\n        tieuthu\n    */\n\n    /* Process Related */\n     struct basicDetails {\n        string registrationNo;\n        string nongtrainame;\n        string diachinongtrai;\n        string vanchuyenName;\n        string sanxuatName;\n\n    }\n\n    struct nongtrai {\n        string loaicafe;\n        string hatgiong;\n        string phanbon;\n    }\n\n    struct thuhoach {\n        string cafe;\n        string nhietdo;\n        string doam;\n    }\n\n    struct vanchuyen {\n        string diachiden;\n        string tenship;\n        string idship;\n        uint256 soluong;\n        uint256 departureDateTime;\n        uint256 thoigianuoctinh;\n        string sanxuat;\n    }\n\n    struct sanxuat {\n        uint256 soluong;\n        uint256 ngayden;\n        string loai;\n        string tenkho;\n        string diachikho;\n        string tieuthu;\n    }\n\n    struct tieuthu {\n        uint256 soluong;\n        uint256 ngayden;\n        uint256 thoihan;\n        string loai;\n    }\n\n    mapping (address => basicDetails) batchBasicDetails;\n    mapping (address => nongtrai) batchnongtrai;\n    mapping (address => thuhoach) batchthuhoach;\n    mapping (address => vanchuyen) batchvanchuyen;\n    mapping (address => sanxuat) batchsanxuat;\n    mapping (address => tieuthu) batchtieuthu;\n    mapping (address => string) nextAction;\n\n    /*Initialize struct pointer*/\n    user userDetail;\n    basicDetails basicDetailsData;\n    nongtrai nongtraiData;\n    thuhoach thuhoachData;\n    vanchuyen vanchuyenData;\n    sanxuat sanxuatData;\n    tieuthu tieuthuData;\n\n\n\n    function ChuoiRong (string Chuoi) pure public returns (bool) {\n        bytes memory _value = bytes (Chuoi);\n        if (_value.length == 0)\n            return true;\n        return false;\n    }\n\n\n    function NguoiDungTonTai (address diaChi) constant private returns (bool) {\n        if (!ChuoiRong (userDetails [diaChi].name)) {\n            return true;\n        }\n        return false;\n    }\n\n    /* Get User Role */\n    function getUserRole(address _userAddress) public onlyAuthCaller view returns(string)\n    {\n        return userRole[_userAddress];\n    }\n\n    /* Get Next Action  */\n    function getNextAction(address _batchNo) public onlyAuthCaller view returns(string)\n    {\n        return nextAction[_batchNo];\n    }\n\n    /*set user details*/\n    function setUser(address _userAddress,\n                     string _name,\n                     string _contactNo,\n                     string _role,\n                     bool _isActive) public onlyAuthCaller view returns(bool){\n\n        /*store data into struct*/\n        userDetail.name = _name;\n        userDetail.contactNo = _contactNo;\n        userDetail.isActive = _isActive;\n\n        /*store data into mapping*/\n        userDetails[_userAddress] = userDetail;\n        userRole[_userAddress] = _role;\n\n        emit UserUpdate(_userAddress,_name,_contactNo,_role,_isActive);\n        emit UserRoleUpdate(_userAddress,_role);\n\n        return true;\n    }\n    /* Create/Update User For Admin  */\n    function updateUserForAdmin(address _userAddress, string _name, string _contactNo, string _role, bool _isActive) public returns(bool)\n    {\n        require(_userAddress != address(0));\n\n        /* Call Storage Contract */\n        bool status = setUser(_userAddress, _name, _contactNo, _role, _isActive);\n\n         /*call event*/\n        emit UserUpdate(_userAddress,_name,_contactNo,_role,_isActive);\n        emit UserRoleUpdate(_userAddress,_role);\n\n        return status;\n    }\n\n\t/* Create/Update User */\n    function updateUser(string _name, string _contactNo, string _role, bool _isActive) public returns(bool)\n    {\n        require(msg.sender != address(0));\n\n        /* Call Storage Contract */\n        bool status = setUser(msg.sender, _name, _contactNo, _role, _isActive);\n\n         /*call event*/\n        emit UserUpdate(msg.sender,_name,_contactNo,_role,_isActive);\n        emit UserRoleUpdate(msg.sender,_role);\n\n        return status;\n    }\n    /*get user details*/\n    function getUser(address _userAddress) public onlyAuthCaller view returns(string name,\n                                                                    string contactNo,\n                                                                    string role,\n                                                                    bool isActive\n                                                                ){\n\n        /*Getting value from struct*/\n        user memory tmpData = userDetails[_userAddress];\n\n        return (tmpData.name, tmpData.contactNo, userRole[_userAddress], tmpData.isActive);\n    }\n    function getUserAdmin(address _userAddress) public view returns(string name, string contactNo, string role, bool isActive){\n        require(_userAddress != address(0));\n\n        /*Getting value from struct*/\n       (name, contactNo, role, isActive) = getUser(_userAddress);\n\n       return (name, contactNo, role, isActive);\n    }\n    /*get batch basicDetails*/\n    function getBasicDetails(address _batchNo) public onlyAuthCaller view returns(string registrationNo,\n                             string nongtrainame,\n                             string diachinongtrai,\n                             string vanchuyenName,\n                             string sanxuatName) {\n\n        basicDetails memory tmpData = batchBasicDetails[_batchNo];\n\n        return (tmpData.registrationNo,tmpData.nongtrainame,tmpData.diachinongtrai,tmpData.vanchuyenName,tmpData.sanxuatName);\n    }\n\n    /*set batch basicDetails*/\n    function setBasicDetails(string _registrationNo,\n                             string _nongtrainame,\n                             string _diachinongtrai,\n                             string _vanchuyenName,\n                             string _sanxuatName\n\n                            ) public onlyAuthCaller returns(address) {\n\n        uint tmpData = uint(keccak256(msg.sender, now));\n        address batchNo = address(tmpData);\n        basicDetailsData.registrationNo = _registrationNo;\n        basicDetailsData.nongtrainame = _nongtrainame;\n        basicDetailsData.diachinongtrai = _diachinongtrai;\n        basicDetailsData.vanchuyenName = _vanchuyenName;\n        basicDetailsData.sanxuatName = _sanxuatName;\n\n        batchBasicDetails[batchNo] = basicDetailsData;\n\n        nextAction[batchNo] = 'nongtrai';\n\n        emit PerformCultivation(msg.sender, batchNo);\n\n        return batchNo;\n    }\n\n    /*set farm Inspector data*/\n    function setnongtraiData(address batchNo,\n                                    string _loaicafe,\n                                    string _hatgiong,\n                                    string _phanbon) public returns(bool){\n\trequire (NguoiDungTonTai (msg.sender));\n        nongtraiData.loaicafe = _loaicafe;\n        nongtraiData.hatgiong = _hatgiong;\n        nongtraiData.phanbon = _phanbon;\n        batchnongtrai[batchNo] = nongtraiData;\n        nextAction[batchNo] = 'thuhoach';\n\n        emit DoneNongTrai(msg.sender, batchNo);\n\n        return true;\n    }\n\n    /*get farm inspactor data*/\n    function getnongtraiData(address batchNo) public onlyAuthCaller view returns (string loaicafe,string hatgiong,string phanbon){\n\n        nongtrai memory tmpData = batchnongtrai[batchNo];\n        return (tmpData.loaicafe, tmpData.hatgiong, tmpData.phanbon);\n    }\n\n\n    /*set thuhoach data*/\n    function setthuhoachData(address batchNo,\n                              string _cafe,\n                              string _nhietdo,\n                              string _doam) public returns(bool){\n\trequire (NguoiDungTonTai (msg.sender));\n        thuhoachData.cafe = _cafe;\n        thuhoachData.nhietdo = _nhietdo;\n        thuhoachData.doam = _doam;\n\n        batchthuhoach[batchNo] = thuhoachData;\n\n        nextAction[batchNo] = 'vanchuyen';\n\n        emit DoneThuhoach(msg.sender, batchNo);\n\n        return true;\n    }\n\n    /*get farm thuhoach data*/\n    function getthuhoachData(address batchNo) public onlyAuthCaller view returns(string cafe,\n                                                                                           string nhietdo,\n                                                                                           string doam){\n\n        thuhoach memory tmpData = batchthuhoach[batchNo];\n        return (tmpData.cafe, tmpData.nhietdo, tmpData.doam);\n    }\n\n    /*set vanchuyen data*/\n    function setvanchuyenData(address batchNo,\n                              uint256 _soluong,\n                              string _diachiden,\n                              string _tenship,\n                              string _idship,\n                              uint256 _thoigianuoctinh,\n                              string _sanxuat) public returns(bool){\n        require (NguoiDungTonTai (msg.sender));\n        vanchuyenData.soluong = _soluong;\n        vanchuyenData.diachiden = _diachiden;\n        vanchuyenData.tenship = _tenship;\n        vanchuyenData.idship = _idship;\n        vanchuyenData.departureDateTime = now;\n        vanchuyenData.thoigianuoctinh = _thoigianuoctinh;\n        vanchuyenData.sanxuat = _sanxuat;\n\n        batchvanchuyen[batchNo] = vanchuyenData;\n\n        nextAction[batchNo] = 'sanxuat';\n\n        emit DoneVanchuyen(msg.sender, batchNo);\n\n        return true;\n    }\n\n    /*get vanchuyen data*/\n    function getvanchuyenData(address batchNo) public onlyAuthCaller view returns(uint256 soluong,\n                                                                string diachiden,\n                                                                string tenship,\n                                                                string idship,\n                                                                uint256 departureDateTime,\n                                                                uint256 thoigianuoctinh,\n                                                                string sanxuat){\n\n\n        vanchuyen memory tmpData = batchvanchuyen[batchNo];\n\n\n        return (tmpData.soluong,\n                tmpData.diachiden,\n                tmpData.tenship,\n                tmpData.idship,\n                tmpData.departureDateTime,\n                tmpData.thoigianuoctinh,\n                tmpData.sanxuat);\n\n\n    }\n\n\n    /*set sanxuat data*/\n    function setsanxuatData(address batchNo,\n                              uint256 _soluong,\n                              string _loai,\n                              string _tenkho,\n                              string _diachikho,\n                              string _tieuthu) public returns(bool){\n        require (NguoiDungTonTai (msg.sender));\n        sanxuatData.soluong = _soluong;\n        sanxuatData.loai = _loai;\n        sanxuatData.ngayden = now;\n        sanxuatData.tenkho = _tenkho;\n        sanxuatData.diachikho = _diachikho;\n        sanxuatData.tieuthu = _tieuthu;\n\n        batchsanxuat[batchNo] = sanxuatData;\n\n        nextAction[batchNo] = 'tieuthu';\n\n        emit DoneSanxuat(msg.sender, batchNo);\n\n        return true;\n    }\n\n    /*get sanxuat data*/\n    function getsanxuatData(address batchNo) public onlyAuthCaller view returns(uint256 soluong,\n                                                                                        string loai,\n                                                                                        uint256 ngayden,\n                                                                                        string tenkho,\n                                                                                        string diachikho,\n                                                                                        string tieuthu){\n\n        sanxuat memory tmpData = batchsanxuat[batchNo];\n\n\n        return (tmpData.soluong,\n                tmpData.loai,\n                tmpData.ngayden,\n                tmpData.tenkho,\n                tmpData.diachikho,\n                tmpData.tieuthu);\n\n\n    }\n\n    /*set Proccessor data*/\n    function settieuthuData(address batchNo,\n                              uint256 _soluong,\n                              uint256 _thoihan,\n                              string _loai) public returns(bool){\n\n        require (NguoiDungTonTai (msg.sender));\n        tieuthuData.soluong = _soluong;\n        tieuthuData.ngayden = now;\n        tieuthuData.thoihan = _thoihan;\n        tieuthuData.loai = _loai;\n\n        batchtieuthu[batchNo] = tieuthuData;\n\n        nextAction[batchNo] = 'DONE';\n\n        emit DoneTieuthu(msg.sender, batchNo);\n\n        return true;\n    }\n\n\n    /*get tieuthu data*/\n    function gettieuthuData( address batchNo) public onlyAuthCaller view returns(       uint256 soluong,\n                                                                                        uint256 ngayden,\n                                                                                        uint256 thoihan,\n                                                                                        string loai){\n\n        tieuthu memory tmpData = batchtieuthu[batchNo];\n\n\n        return (\n                tmpData.soluong,\n                tmpData.ngayden,\n                tmpData.thoihan,\n                tmpData.loai);\n\n\n    }\n\n\n}\n",
  "sourcePath": "/home/thieuvan/Desktop/myChain2/Projects/coffee-supplychain/contracts/SupplyChainCafe.sol",
  "compiler": {
    "name": "solc",
    "version": "0.4.24+commit.e67f0147.Emscripten.clang"
  },
  "schemaVersion": "2.0.1",
  "updatedAt": "2018-11-22T07:09:53.070Z"
}