{
  "contractName": "SupplyChainStorage",
  "abi": [
    {
      "constant": false,
      "inputs": [],
      "name": "renounceOwnership",
      "outputs": [],
      "payable": false,
      "stateMutability": "nonpayable",
      "type": "function"
    },
    {
      "constant": true,
      "inputs": [],
      "name": "owner",
      "outputs": [
        {
          "name": "",
          "type": "address"
        }
      ],
      "payable": false,
      "stateMutability": "view",
      "type": "function"
    },
    {
      "constant": false,
      "inputs": [
        {
          "name": "newOwner",
          "type": "address"
        }
      ],
      "name": "transferOwnership",
      "outputs": [],
      "payable": false,
      "stateMutability": "nonpayable",
      "type": "function"
    },
    {
      "inputs": [],
      "payable": false,
      "stateMutability": "nonpayable",
      "type": "constructor"
    },
    {
      "anonymous": false,
      "inputs": [
        {
          "indexed": false,
          "name": "caller",
          "type": "address"
        }
      ],
      "name": "AuthorizedCaller",
      "type": "event"
    },
    {
      "anonymous": false,
      "inputs": [
        {
          "indexed": false,
          "name": "caller",
          "type": "address"
        }
      ],
      "name": "DeAuthorizedCaller",
      "type": "event"
    },
    {
      "anonymous": false,
      "inputs": [
        {
          "indexed": true,
          "name": "user",
          "type": "address"
        },
        {
          "indexed": true,
          "name": "batchNo",
          "type": "address"
        }
      ],
      "name": "PerformCultivation",
      "type": "event"
    },
    {
      "anonymous": false,
      "inputs": [
        {
          "indexed": true,
          "name": "user",
          "type": "address"
        },
        {
          "indexed": true,
          "name": "batchNo",
          "type": "address"
        }
      ],
      "name": "DoneInspection",
      "type": "event"
    },
    {
      "anonymous": false,
      "inputs": [
        {
          "indexed": true,
          "name": "user",
          "type": "address"
        },
        {
          "indexed": true,
          "name": "batchNo",
          "type": "address"
        }
      ],
      "name": "DoneHarvesting",
      "type": "event"
    },
    {
      "anonymous": false,
      "inputs": [
        {
          "indexed": true,
          "name": "user",
          "type": "address"
        },
        {
          "indexed": true,
          "name": "batchNo",
          "type": "address"
        }
      ],
      "name": "DoneExporting",
      "type": "event"
    },
    {
      "anonymous": false,
      "inputs": [
        {
          "indexed": true,
          "name": "user",
          "type": "address"
        },
        {
          "indexed": true,
          "name": "batchNo",
          "type": "address"
        }
      ],
      "name": "DoneImporting",
      "type": "event"
    },
    {
      "anonymous": false,
      "inputs": [
        {
          "indexed": true,
          "name": "user",
          "type": "address"
        },
        {
          "indexed": true,
          "name": "batchNo",
          "type": "address"
        }
      ],
      "name": "DoneProcessing",
      "type": "event"
    },
    {
      "anonymous": false,
      "inputs": [
        {
          "indexed": true,
          "name": "user",
          "type": "address"
        },
        {
          "indexed": false,
          "name": "name",
          "type": "string"
        },
        {
          "indexed": false,
          "name": "contactNo",
          "type": "string"
        },
        {
          "indexed": false,
          "name": "role",
          "type": "string"
        },
        {
          "indexed": false,
          "name": "isActive",
          "type": "bool"
        }
      ],
      "name": "UserUpdate",
      "type": "event"
    },
    {
      "anonymous": false,
      "inputs": [
        {
          "indexed": true,
          "name": "user",
          "type": "address"
        },
        {
          "indexed": false,
          "name": "role",
          "type": "string"
        }
      ],
      "name": "UserRoleUpdate",
      "type": "event"
    },
    {
      "anonymous": false,
      "inputs": [
        {
          "indexed": true,
          "name": "previousOwner",
          "type": "address"
        }
      ],
      "name": "OwnershipRenounced",
      "type": "event"
    },
    {
      "anonymous": false,
      "inputs": [
        {
          "indexed": true,
          "name": "previousOwner",
          "type": "address"
        },
        {
          "indexed": true,
          "name": "newOwner",
          "type": "address"
        }
      ],
      "name": "OwnershipTransferred",
      "type": "event"
    },
    {
      "constant": false,
      "inputs": [
        {
          "name": "_caller",
          "type": "address"
        }
      ],
      "name": "authorizeCaller",
      "outputs": [
        {
          "name": "",
          "type": "bool"
        }
      ],
      "payable": false,
      "stateMutability": "nonpayable",
      "type": "function"
    },
    {
      "constant": false,
      "inputs": [
        {
          "name": "_caller",
          "type": "address"
        }
      ],
      "name": "deAuthorizeCaller",
      "outputs": [
        {
          "name": "",
          "type": "bool"
        }
      ],
      "payable": false,
      "stateMutability": "nonpayable",
      "type": "function"
    },
    {
      "constant": true,
      "inputs": [
        {
          "name": "Chuoi",
          "type": "string"
        }
      ],
      "name": "ChuoiRong",
      "outputs": [
        {
          "name": "",
          "type": "bool"
        }
      ],
      "payable": false,
      "stateMutability": "pure",
      "type": "function"
    },
    {
      "constant": true,
      "inputs": [
        {
          "name": "_userAddress",
          "type": "address"
        }
      ],
      "name": "getUserRole",
      "outputs": [
        {
          "name": "",
          "type": "string"
        }
      ],
      "payable": false,
      "stateMutability": "view",
      "type": "function"
    },
    {
      "constant": true,
      "inputs": [
        {
          "name": "_batchNo",
          "type": "address"
        }
      ],
      "name": "getNextAction",
      "outputs": [
        {
          "name": "",
          "type": "string"
        }
      ],
      "payable": false,
      "stateMutability": "view",
      "type": "function"
    },
    {
      "constant": true,
      "inputs": [
        {
          "name": "_userAddress",
          "type": "address"
        },
        {
          "name": "_name",
          "type": "string"
        },
        {
          "name": "_contactNo",
          "type": "string"
        },
        {
          "name": "_role",
          "type": "string"
        },
        {
          "name": "_isActive",
          "type": "bool"
        }
      ],
      "name": "setUser",
      "outputs": [
        {
          "name": "",
          "type": "bool"
        }
      ],
      "payable": false,
      "stateMutability": "view",
      "type": "function"
    },
    {
      "constant": false,
      "inputs": [
        {
          "name": "_userAddress",
          "type": "address"
        },
        {
          "name": "_name",
          "type": "string"
        },
        {
          "name": "_contactNo",
          "type": "string"
        },
        {
          "name": "_role",
          "type": "string"
        },
        {
          "name": "_isActive",
          "type": "bool"
        }
      ],
      "name": "updateUserForAdmin",
      "outputs": [
        {
          "name": "",
          "type": "bool"
        }
      ],
      "payable": false,
      "stateMutability": "nonpayable",
      "type": "function"
    },
    {
      "constant": false,
      "inputs": [
        {
          "name": "_name",
          "type": "string"
        },
        {
          "name": "_contactNo",
          "type": "string"
        },
        {
          "name": "_role",
          "type": "string"
        },
        {
          "name": "_isActive",
          "type": "bool"
        }
      ],
      "name": "updateUser",
      "outputs": [
        {
          "name": "",
          "type": "bool"
        }
      ],
      "payable": false,
      "stateMutability": "nonpayable",
      "type": "function"
    },
    {
      "constant": true,
      "inputs": [
        {
          "name": "_userAddress",
          "type": "address"
        }
      ],
      "name": "getUser",
      "outputs": [
        {
          "name": "name",
          "type": "string"
        },
        {
          "name": "contactNo",
          "type": "string"
        },
        {
          "name": "role",
          "type": "string"
        },
        {
          "name": "isActive",
          "type": "bool"
        }
      ],
      "payable": false,
      "stateMutability": "view",
      "type": "function"
    },
    {
      "constant": true,
      "inputs": [
        {
          "name": "_userAddress",
          "type": "address"
        }
      ],
      "name": "getUserAdmin",
      "outputs": [
        {
          "name": "name",
          "type": "string"
        },
        {
          "name": "contactNo",
          "type": "string"
        },
        {
          "name": "role",
          "type": "string"
        },
        {
          "name": "isActive",
          "type": "bool"
        }
      ],
      "payable": false,
      "stateMutability": "view",
      "type": "function"
    },
    {
      "constant": true,
      "inputs": [
        {
          "name": "_batchNo",
          "type": "address"
        }
      ],
      "name": "getBasicDetails",
      "outputs": [
        {
          "name": "registrationNo",
          "type": "string"
        },
        {
          "name": "farmerName",
          "type": "string"
        },
        {
          "name": "farmAddress",
          "type": "string"
        },
        {
          "name": "exporterName",
          "type": "string"
        },
        {
          "name": "importerName",
          "type": "string"
        }
      ],
      "payable": false,
      "stateMutability": "view",
      "type": "function"
    },
    {
      "constant": false,
      "inputs": [
        {
          "name": "_registrationNo",
          "type": "string"
        },
        {
          "name": "_farmerName",
          "type": "string"
        },
        {
          "name": "_farmAddress",
          "type": "string"
        },
        {
          "name": "_exporterName",
          "type": "string"
        },
        {
          "name": "_importerName",
          "type": "string"
        }
      ],
      "name": "setBasicDetails",
      "outputs": [
        {
          "name": "",
          "type": "address"
        }
      ],
      "payable": false,
      "stateMutability": "nonpayable",
      "type": "function"
    },
    {
      "constant": false,
      "inputs": [
        {
          "name": "batchNo",
          "type": "address"
        },
        {
          "name": "_coffeeFamily",
          "type": "string"
        },
        {
          "name": "_typeOfSeed",
          "type": "string"
        },
        {
          "name": "_fertilizerUsed",
          "type": "string"
        }
      ],
      "name": "setFarmInspectorData",
      "outputs": [
        {
          "name": "",
          "type": "bool"
        }
      ],
      "payable": false,
      "stateMutability": "nonpayable",
      "type": "function"
    },
    {
      "constant": true,
      "inputs": [
        {
          "name": "batchNo",
          "type": "address"
        }
      ],
      "name": "getFarmInspectorData",
      "outputs": [
        {
          "name": "coffeeFamily",
          "type": "string"
        },
        {
          "name": "typeOfSeed",
          "type": "string"
        },
        {
          "name": "fertilizerUsed",
          "type": "string"
        }
      ],
      "payable": false,
      "stateMutability": "view",
      "type": "function"
    },
    {
      "constant": false,
      "inputs": [
        {
          "name": "batchNo",
          "type": "address"
        },
        {
          "name": "_cropVariety",
          "type": "string"
        },
        {
          "name": "_temperatureUsed",
          "type": "string"
        },
        {
          "name": "_humidity",
          "type": "string"
        }
      ],
      "name": "setHarvesterData",
      "outputs": [
        {
          "name": "",
          "type": "bool"
        }
      ],
      "payable": false,
      "stateMutability": "nonpayable",
      "type": "function"
    },
    {
      "constant": true,
      "inputs": [
        {
          "name": "batchNo",
          "type": "address"
        }
      ],
      "name": "getHarvesterData",
      "outputs": [
        {
          "name": "cropVariety",
          "type": "string"
        },
        {
          "name": "temperatureUsed",
          "type": "string"
        },
        {
          "name": "humidity",
          "type": "string"
        }
      ],
      "payable": false,
      "stateMutability": "view",
      "type": "function"
    },
    {
      "constant": false,
      "inputs": [
        {
          "name": "batchNo",
          "type": "address"
        },
        {
          "name": "_quantity",
          "type": "uint256"
        },
        {
          "name": "_destinationAddress",
          "type": "string"
        },
        {
          "name": "_shipName",
          "type": "string"
        },
        {
          "name": "_shipNo",
          "type": "string"
        },
        {
          "name": "_estimateDateTime",
          "type": "uint256"
        },
        {
          "name": "_exporterId",
          "type": "uint256"
        }
      ],
      "name": "setExporterData",
      "outputs": [
        {
          "name": "",
          "type": "bool"
        }
      ],
      "payable": false,
      "stateMutability": "nonpayable",
      "type": "function"
    },
    {
      "constant": true,
      "inputs": [
        {
          "name": "batchNo",
          "type": "address"
        }
      ],
      "name": "getExporterData",
      "outputs": [
        {
          "name": "quantity",
          "type": "uint256"
        },
        {
          "name": "destinationAddress",
          "type": "string"
        },
        {
          "name": "shipName",
          "type": "string"
        },
        {
          "name": "shipNo",
          "type": "string"
        },
        {
          "name": "departureDateTime",
          "type": "uint256"
        },
        {
          "name": "estimateDateTime",
          "type": "uint256"
        },
        {
          "name": "exporterId",
          "type": "uint256"
        }
      ],
      "payable": false,
      "stateMutability": "view",
      "type": "function"
    },
    {
      "constant": false,
      "inputs": [
        {
          "name": "batchNo",
          "type": "address"
        },
        {
          "name": "_quantity",
          "type": "uint256"
        },
        {
          "name": "_shipName",
          "type": "string"
        },
        {
          "name": "_shipNo",
          "type": "string"
        },
        {
          "name": "_transportInfo",
          "type": "string"
        },
        {
          "name": "_warehouseName",
          "type": "string"
        },
        {
          "name": "_warehouseAddress",
          "type": "string"
        },
        {
          "name": "_importerId",
          "type": "uint256"
        }
      ],
      "name": "setImporterData",
      "outputs": [
        {
          "name": "",
          "type": "bool"
        }
      ],
      "payable": false,
      "stateMutability": "nonpayable",
      "type": "function"
    },
    {
      "constant": true,
      "inputs": [
        {
          "name": "batchNo",
          "type": "address"
        }
      ],
      "name": "getImporterData",
      "outputs": [
        {
          "name": "quantity",
          "type": "uint256"
        },
        {
          "name": "shipName",
          "type": "string"
        },
        {
          "name": "shipNo",
          "type": "string"
        },
        {
          "name": "arrivalDateTime",
          "type": "uint256"
        },
        {
          "name": "transportInfo",
          "type": "string"
        },
        {
          "name": "warehouseName",
          "type": "string"
        },
        {
          "name": "warehouseAddress",
          "type": "string"
        },
        {
          "name": "importerId",
          "type": "uint256"
        }
      ],
      "payable": false,
      "stateMutability": "view",
      "type": "function"
    },
    {
      "constant": false,
      "inputs": [
        {
          "name": "batchNo",
          "type": "address"
        },
        {
          "name": "_quantity",
          "type": "uint256"
        },
        {
          "name": "_temperature",
          "type": "string"
        },
        {
          "name": "_rostingDuration",
          "type": "uint256"
        },
        {
          "name": "_internalBatchNo",
          "type": "string"
        },
        {
          "name": "_packageDateTime",
          "type": "uint256"
        },
        {
          "name": "_processorName",
          "type": "string"
        },
        {
          "name": "_processorAddress",
          "type": "string"
        }
      ],
      "name": "setProcessorData",
      "outputs": [
        {
          "name": "",
          "type": "bool"
        }
      ],
      "payable": false,
      "stateMutability": "nonpayable",
      "type": "function"
    },
    {
      "constant": true,
      "inputs": [
        {
          "name": "batchNo",
          "type": "address"
        }
      ],
      "name": "getProcessorData",
      "outputs": [
        {
          "name": "quantity",
          "type": "uint256"
        },
        {
          "name": "temperature",
          "type": "string"
        },
        {
          "name": "rostingDuration",
          "type": "uint256"
        },
        {
          "name": "internalBatchNo",
          "type": "string"
        },
        {
          "name": "packageDateTime",
          "type": "uint256"
        },
        {
          "name": "processorName",
          "type": "string"
        },
        {
          "name": "processorAddress",
          "type": "string"
        }
      ],
      "payable": false,
      "stateMutability": "view",
      "type": "function"
    }
  ],
  "bytecode": "0x608060405234801561001057600080fd5b50336000806101000a81548173ffffffffffffffffffffffffffffffffffffffff021916908373ffffffffffffffffffffffffffffffffffffffff1602179055506001600360003373ffffffffffffffffffffffffffffffffffffffff1673ffffffffffffffffffffffffffffffffffffffff16815260200190815260200160002060006101000a81548160ff021916908360ff1602179055507f8afeca650897be3183b7c0d24eba96a1b990f75c4bd74a0cfb2c0a71aec48e6133604051808273ffffffffffffffffffffffffffffffffffffffff1673ffffffffffffffffffffffffffffffffffffffff16815260200191505060405180910390a1615c83806200011d6000396000f300608060405260043610610149576000357c0100000000000000000000000000000000000000000000000000000000900463ffffffff16806306ecd6d41461014e5780630ab36749146102fe57806316480ab11461042b5780631bcd250a146104ac5780631dbcddf4146105075780631f10a01014610634578063278208511461076d5780632c388d5d146108295780634133f911146108845780634516d51e146109bd5780634b842b3f14610ad65780634d6b5e0014610c7557806353a7571f14610d315780636115eec214610ec25780636f77926b1461108f578063715018a61461122e5780637f89e94b146112455780638da5cb5b146113d9578063b51a321614611430578063b6959d731461157b578063ca5322e514611790578063cf37467414611924578063f2997d7614611ae5578063f2fde38b14611d51578063febd049214611d94575b600080fd5b34801561015a57600080fd5b5061018f600480360381019080803573ffffffffffffffffffffffffffffffffffffffff169060200190929190505050612015565b6040518088815260200180602001806020018060200187815260200186815260200185815260200184810384528a818151815260200191508051906020019080838360005b838110156101ef5780820151818401526020810190506101d4565b50505050905090810190601f16801561021c5780820380516001836020036101000a031916815260200191505b50848103835289818151815260200191508051906020019080838360005b8381101561025557808201518184015260208101905061023a565b50505050905090810190601f1680156102825780820380516001836020036101000a031916815260200191505b50848103825288818151815260200191508051906020019080838360005b838110156102bb5780820151818401526020810190506102a0565b50505050905090810190601f1680156102e85780820380516001836020036101000a031916815260200191505b509a505050505050505050505060405180910390f35b34801561030a57600080fd5b50610411600480360381019080803573ffffffffffffffffffffffffffffffffffffffff169060200190929190803590602001908201803590602001908080601f0160208091040260200160405190810160405280939291908181526020018383808284378201915050505050509192919290803590602001908201803590602001908080601f0160208091040260200160405190810160405280939291908181526020018383808284378201915050505050509192919290803590602001908201803590602001908080601f0160208091040260200160405190810160405280939291908181526020018383808284378201915050505050509192919290505050612333565b604051808215151515815260200191505060405180910390f35b34801561043757600080fd5b50610492600480360381019080803590602001908201803590602001908080601f0160208091040260200160405190810160405280939291908181526020018383808284378201915050505050509192919290505050612542565b604051808215151515815260200191505060405180910390f35b3480156104b857600080fd5b506104ed600480360381019080803573ffffffffffffffffffffffffffffffffffffffff169060200190929190505050612567565b604051808215151515815260200191505060405180910390f35b34801561051357600080fd5b5061061a600480360381019080803573ffffffffffffffffffffffffffffffffffffffff169060200190929190803590602001908201803590602001908080601f0160208091040260200160405190810160405280939291908181526020018383808284378201915050505050509192919290803590602001908201803590602001908080601f0160208091040260200160405190810160405280939291908181526020018383808284378201915050505050509192919290803590602001908201803590602001908080601f0160208091040260200160405190810160405280939291908181526020018383808284378201915050505050509192919290505050612689565b604051808215151515815260200191505060405180910390f35b34801561064057600080fd5b50610753600480360381019080803573ffffffffffffffffffffffffffffffffffffffff169060200190929190803590602001908201803590602001908080601f0160208091040260200160405190810160405280939291908181526020018383808284378201915050505050509192919290803590602001908201803590602001908080601f0160208091040260200160405190810160405280939291908181526020018383808284378201915050505050509192919290803590602001908201803590602001908080601f0160208091040260200160405190810160405280939291908181526020018383808284378201915050505050509192919290803515159060200190929190505050612898565b604051808215151515815260200191505060405180910390f35b34801561077957600080fd5b506107ae600480360381019080803573ffffffffffffffffffffffffffffffffffffffff169060200190929190505050612cb7565b6040518080602001828103825283818151815260200191508051906020019080838360005b838110156107ee5780820151818401526020810190506107d3565b50505050905090810190601f16801561081b5780820380516001836020036101000a031916815260200191505b509250505060405180910390f35b34801561083557600080fd5b5061086a600480360381019080803573ffffffffffffffffffffffffffffffffffffffff169060200190929190505050612df6565b604051808215151515815260200191505060405180910390f35b34801561089057600080fd5b506109a3600480360381019080803573ffffffffffffffffffffffffffffffffffffffff169060200190929190803590602001908201803590602001908080601f0160208091040260200160405190810160405280939291908181526020018383808284378201915050505050509192919290803590602001908201803590602001908080601f0160208091040260200160405190810160405280939291908181526020018383808284378201915050505050509192919290803590602001908201803590602001908080601f0160208091040260200160405190810160405280939291908181526020018383808284378201915050505050509192919290803515159060200190929190505050612f18565b604051808215151515815260200191505060405180910390f35b3480156109c957600080fd5b50610abc600480360381019080803590602001908201803590602001908080601f0160208091040260200160405190810160405280939291908181526020018383808284378201915050505050509192919290803590602001908201803590602001908080601f0160208091040260200160405190810160405280939291908181526020018383808284378201915050505050509192919290803590602001908201803590602001908080601f016020809104026020016040519081016040528093929190818152602001838380828437820191505050505050919291929080351515906020019092919050505061321a565b604051808215151515815260200191505060405180910390f35b348015610ae257600080fd5b50610b17600480360381019080803573ffffffffffffffffffffffffffffffffffffffff1690602001909291905050506134c0565b6040518080602001806020018060200185151515158152602001848103845288818151815260200191508051906020019080838360005b83811015610b69578082015181840152602081019050610b4e565b50505050905090810190601f168015610b965780820380516001836020036101000a031916815260200191505b50848103835287818151815260200191508051906020019080838360005b83811015610bcf578082015181840152602081019050610bb4565b50505050905090810190601f168015610bfc5780820380516001836020036101000a031916815260200191505b50848103825286818151815260200191508051906020019080838360005b83811015610c35578082015181840152602081019050610c1a565b50505050905090810190601f168015610c625780820380516001836020036101000a031916815260200191505b5097505050505050505060405180910390f35b348015610c8157600080fd5b50610cb6600480360381019080803573ffffffffffffffffffffffffffffffffffffffff16906020019092919050505061352e565b6040518080602001828103825283818151815260200191508051906020019080838360005b83811015610cf6578082015181840152602081019050610cdb565b50505050905090810190601f168015610d235780820380516001836020036101000a031916815260200191505b509250505060405180910390f35b348015610d3d57600080fd5b50610ea8600480360381019080803573ffffffffffffffffffffffffffffffffffffffff16906020019092919080359060200190929190803590602001908201803590602001908080601f016020809104026020016040519081016040528093929190818152602001838380828437820191505050505050919291929080359060200190929190803590602001908201803590602001908080601f016020809104026020016040519081016040528093929190818152602001838380828437820191505050505050919291929080359060200190929190803590602001908201803590602001908080601f0160208091040260200160405190810160405280939291908181526020018383808284378201915050505050509192919290803590602001908201803590602001908080601f016020809104026020016040519081016040528093929190818152602001838380828437820191505050505050919291929050505061366d565b604051808215151515815260200191505060405180910390f35b348015610ece57600080fd5b50611075600480360381019080803573ffffffffffffffffffffffffffffffffffffffff16906020019092919080359060200190929190803590602001908201803590602001908080601f0160208091040260200160405190810160405280939291908181526020018383808284378201915050505050509192919290803590602001908201803590602001908080601f0160208091040260200160405190810160405280939291908181526020018383808284378201915050505050509192919290803590602001908201803590602001908080601f0160208091040260200160405190810160405280939291908181526020018383808284378201915050505050509192919290803590602001908201803590602001908080601f0160208091040260200160405190810160405280939291908181526020018383808284378201915050505050509192919290803590602001908201803590602001908080601f0160208091040260200160405190810160405280939291908181526020018383808284378201915050505050509192919290803590602001909291905050506138fe565b604051808215151515815260200191505060405180910390f35b34801561109b57600080fd5b506110d0600480360381019080803573ffffffffffffffffffffffffffffffffffffffff169060200190929190505050613bd1565b6040518080602001806020018060200185151515158152602001848103845288818151815260200191508051906020019080838360005b83811015611122578082015181840152602081019050611107565b50505050905090810190601f16801561114f5780820380516001836020036101000a031916815260200191505b50848103835287818151815260200191508051906020019080838360005b8381101561118857808201518184015260208101905061116d565b50505050905090810190601f1680156111b55780820380516001836020036101000a031916815260200191505b50848103825286818151815260200191508051906020019080838360005b838110156111ee5780820151818401526020810190506111d3565b50505050905090810190601f16801561121b5780820380516001836020036101000a031916815260200191505b5097505050505050505060405180910390f35b34801561123a57600080fd5b50611243613eea565b005b34801561125157600080fd5b50611286600480360381019080803573ffffffffffffffffffffffffffffffffffffffff169060200190929190505050613fec565b60405180806020018060200180602001848103845287818151815260200191508051906020019080838360005b838110156112ce5780820151818401526020810190506112b3565b50505050905090810190601f1680156112fb5780820380516001836020036101000a031916815260200191505b50848103835286818151815260200191508051906020019080838360005b83811015611334578082015181840152602081019050611319565b50505050905090810190601f1680156113615780820380516001836020036101000a031916815260200191505b50848103825285818151815260200191508051906020019080838360005b8381101561139a57808201518184015260208101905061137f565b50505050905090810190601f1680156113c75780820380516001836020036101000a031916815260200191505b50965050505050505060405180910390f35b3480156113e557600080fd5b506113ee6142b0565b604051808273ffffffffffffffffffffffffffffffffffffffff1673ffffffffffffffffffffffffffffffffffffffff16815260200191505060405180910390f35b34801561143c57600080fd5b50611561600480360381019080803573ffffffffffffffffffffffffffffffffffffffff16906020019092919080359060200190929190803590602001908201803590602001908080601f0160208091040260200160405190810160405280939291908181526020018383808284378201915050505050509192919290803590602001908201803590602001908080601f0160208091040260200160405190810160405280939291908181526020018383808284378201915050505050509192919290803590602001908201803590602001908080601f016020809104026020016040519081016040528093929190818152602001838380828437820191505050505050919291929080359060200190929190803590602001909291905050506142d5565b604051808215151515815260200191505060405180910390f35b34801561158757600080fd5b506115bc600480360381019080803573ffffffffffffffffffffffffffffffffffffffff169060200190929190505050614541565b604051808881526020018060200187815260200180602001868152602001806020018060200185810385528b818151815260200191508051906020019080838360005b8381101561161a5780820151818401526020810190506115ff565b50505050905090810190601f1680156116475780820380516001836020036101000a031916815260200191505b50858103845289818151815260200191508051906020019080838360005b83811015611680578082015181840152602081019050611665565b50505050905090810190601f1680156116ad5780820380516001836020036101000a031916815260200191505b50858103835287818151815260200191508051906020019080838360005b838110156116e65780820151818401526020810190506116cb565b50505050905090810190601f1680156117135780820380516001836020036101000a031916815260200191505b50858103825286818151815260200191508051906020019080838360005b8381101561174c578082015181840152602081019050611731565b50505050905090810190601f1680156117795780820380516001836020036101000a031916815260200191505b509b50505050505050505050505060405180910390f35b34801561179c57600080fd5b506117d1600480360381019080803573ffffffffffffffffffffffffffffffffffffffff1690602001909291905050506148f0565b60405180806020018060200180602001848103845287818151815260200191508051906020019080838360005b838110156118195780820151818401526020810190506117fe565b50505050905090810190601f1680156118465780820380516001836020036101000a031916815260200191505b50848103835286818151815260200191508051906020019080838360005b8381101561187f578082015181840152602081019050611864565b50505050905090810190601f1680156118ac5780820380516001836020036101000a031916815260200191505b50848103825285818151815260200191508051906020019080838360005b838110156118e55780820151818401526020810190506118ca565b50505050905090810190601f1680156119125780820380516001836020036101000a031916815260200191505b50965050505050505060405180910390f35b34801561193057600080fd5b50611aa3600480360381019080803590602001908201803590602001908080601f0160208091040260200160405190810160405280939291908181526020018383808284378201915050505050509192919290803590602001908201803590602001908080601f0160208091040260200160405190810160405280939291908181526020018383808284378201915050505050509192919290803590602001908201803590602001908080601f0160208091040260200160405190810160405280939291908181526020018383808284378201915050505050509192919290803590602001908201803590602001908080601f0160208091040260200160405190810160405280939291908181526020018383808284378201915050505050509192919290803590602001908201803590602001908080601f0160208091040260200160405190810160405280939291908181526020018383808284378201915050505050509192919290505050614bb4565b604051808273ffffffffffffffffffffffffffffffffffffffff1673ffffffffffffffffffffffffffffffffffffffff16815260200191505060405180910390f35b348015611af157600080fd5b50611b26600480360381019080803573ffffffffffffffffffffffffffffffffffffffff169060200190929190505050614ef8565b60405180806020018060200180602001806020018060200186810386528b818151815260200191508051906020019080838360005b83811015611b76578082015181840152602081019050611b5b565b50505050905090810190601f168015611ba35780820380516001836020036101000a031916815260200191505b5086810385528a818151815260200191508051906020019080838360005b83811015611bdc578082015181840152602081019050611bc1565b50505050905090810190601f168015611c095780820380516001836020036101000a031916815260200191505b50868103845289818151815260200191508051906020019080838360005b83811015611c42578082015181840152602081019050611c27565b50505050905090810190601f168015611c6f5780820380516001836020036101000a031916815260200191505b50868103835288818151815260200191508051906020019080838360005b83811015611ca8578082015181840152602081019050611c8d565b50505050905090810190601f168015611cd55780820380516001836020036101000a031916815260200191505b50868103825287818151815260200191508051906020019080838360005b83811015611d0e578082015181840152602081019050611cf3565b50505050905090810190601f168015611d3b5780820380516001836020036101000a031916815260200191505b509a505050505050505050505060405180910390f35b348015611d5d57600080fd5b50611d92600480360381019080803573ffffffffffffffffffffffffffffffffffffffff169060200190929190505050615319565b005b348015611da057600080fd5b50611dd5600480360381019080803573ffffffffffffffffffffffffffffffffffffffff16906020019092919050505061546e565b60405180898152602001806020018060200188815260200180602001806020018060200187815260200186810386528d818151815260200191508051906020019080838360005b83811015611e37578082015181840152602081019050611e1c565b50505050905090810190601f168015611e645780820380516001836020036101000a031916815260200191505b5086810385528c818151815260200191508051906020019080838360005b83811015611e9d578082015181840152602081019050611e82565b50505050905090810190601f168015611eca5780820380516001836020036101000a031916815260200191505b5086810384528a818151815260200191508051906020019080838360005b83811015611f03578082015181840152602081019050611ee8565b50505050905090810190601f168015611f305780820380516001836020036101000a031916815260200191505b50868103835289818151815260200191508051906020019080838360005b83811015611f69578082015181840152602081019050611f4e565b50505050905090810190601f168015611f965780820380516001836020036101000a031916815260200191505b50868103825288818151815260200191508051906020019080838360005b83811015611fcf578082015181840152602081019050611fb4565b50505050905090810190601f168015611ffc5780820380516001836020036101000a031916815260200191505b509d505050505050505050505050505060405180910390f35b6000606080606060008060006120296159c9565b6001600360003373ffffffffffffffffffffffffffffffffffffffff1673ffffffffffffffffffffffffffffffffffffffff16815260200190815260200160002060009054906101000a900460ff1660ff1614151561208757600080fd5b600760008a73ffffffffffffffffffffffffffffffffffffffff1673ffffffffffffffffffffffffffffffffffffffff1681526020019081526020016000206101006040519081016040529081600082018054600181600116156101000203166002900480601f01602080910402602001604051908101604052809291908181526020018280546001816001161561010002031660029004801561216c5780601f106121415761010080835404028352916020019161216c565b820191906000526020600020905b81548152906001019060200180831161214f57829003601f168201915b50505050508152602001600182018054600181600116156101000203166002900480601f01602080910402602001604051908101604052809291908181526020018280546001816001161561010002031660029004801561220e5780601f106121e35761010080835404028352916020019161220e565b820191906000526020600020905b8154815290600101906020018083116121f157829003601f168201915b50505050508152602001600282018054600181600116156101000203166002900480601f0160208091040260200160405190810160405280929190818152602001828054600181600116156101000203166002900480156122b05780601f10612285576101008083540402835291602001916122b0565b820191906000526020600020905b81548152906001019060200180831161229357829003601f168201915b50505050508152602001600382015481526020016004820154815260200160058201548152602001600682015481526020016007820154815250509050806060015181600001518260200151836040015184608001518560a001518660e00151859550849450839350975097509750975097509750975050919395979092949650565b600061233e336158cb565b151561234957600080fd5b8360166000019080519060200190612362929190615a0f565b50826016600101908051906020019061237c929190615a0f565b508160166002019080519060200190612396929190615a0f565b506016600660008773ffffffffffffffffffffffffffffffffffffffff1673ffffffffffffffffffffffffffffffffffffffff168152602001908152602001600020600082018160000190805460018160011615610100020316600290046123ff929190615a8f565b5060018201816001019080546001816001161561010002031660029004612427929190615a8f565b506002820181600201908054600181600116156101000203166002900461244f929190615a8f565b509050506040805190810160405280600881526020017f4558504f52544552000000000000000000000000000000000000000000000000815250600a60008773ffffffffffffffffffffffffffffffffffffffff1673ffffffffffffffffffffffffffffffffffffffff16815260200190815260200160002090805190602001906124db929190615a0f565b508473ffffffffffffffffffffffffffffffffffffffff163373ffffffffffffffffffffffffffffffffffffffff167fbb868668319b351e6f49e0d6ed1618eda15ffe73f6f6f371e419b8d3963a6be560405160405180910390a360019050949350505050565b6000606082905060008151141561255c5760019150612561565b600091505b50919050565b60008060009054906101000a900473ffffffffffffffffffffffffffffffffffffffff1673ffffffffffffffffffffffffffffffffffffffff163373ffffffffffffffffffffffffffffffffffffffff161415156125c457600080fd5b6000600360008473ffffffffffffffffffffffffffffffffffffffff1673ffffffffffffffffffffffffffffffffffffffff16815260200190815260200160002060006101000a81548160ff021916908360ff1602179055507f9e8ca6ff03906e81e8a6a03d4f96b7edb0b97f0ed9d07ef1b699fff63438549682604051808273ffffffffffffffffffffffffffffffffffffffff1673ffffffffffffffffffffffffffffffffffffffff16815260200191505060405180910390a160019050919050565b6000612694336158cb565b151561269f57600080fd5b83601360000190805190602001906126b8929190615a0f565b5082601360010190805190602001906126d2929190615a0f565b5081601360020190805190602001906126ec929190615a0f565b506013600560008773ffffffffffffffffffffffffffffffffffffffff1673ffffffffffffffffffffffffffffffffffffffff16815260200190815260200160002060008201816000019080546001816001161561010002031660029004612755929190615a8f565b506001820181600101908054600181600116156101000203166002900461277d929190615a8f565b50600282018160020190805460018160011615610100020316600290046127a5929190615a8f565b509050506040805190810160405280600981526020017f4841525645535445520000000000000000000000000000000000000000000000815250600a60008773ffffffffffffffffffffffffffffffffffffffff1673ffffffffffffffffffffffffffffffffffffffff1681526020019081526020016000209080519060200190612831929190615a0f565b508473ffffffffffffffffffffffffffffffffffffffff163373ffffffffffffffffffffffffffffffffffffffff167ff38048a8487a9352f87561aa442e92de7d09d55718b8bfc9b16720ea061c35c760405160405180910390a360019050949350505050565b60006001600360003373ffffffffffffffffffffffffffffffffffffffff1673ffffffffffffffffffffffffffffffffffffffff16815260200190815260200160002060009054906101000a900460ff1660ff161415156128f857600080fd5b84600b6000019080519060200190612911929190615a0f565b5083600b600101908051906020019061292b929190615a0f565b5081600b60020160006101000a81548160ff021916908315150217905550600b600160008873ffffffffffffffffffffffffffffffffffffffff1673ffffffffffffffffffffffffffffffffffffffff168152602001908152602001600020600082018160000190805460018160011615610100020316600290046129b1929190615a8f565b50600182018160010190805460018160011615610100020316600290046129d9929190615a8f565b506002820160009054906101000a900460ff168160020160006101000a81548160ff02191690831515021790555090505082600260008873ffffffffffffffffffffffffffffffffffffffff1673ffffffffffffffffffffffffffffffffffffffff1681526020019081526020016000209080519060200190612a5d929190615a0f565b508573ffffffffffffffffffffffffffffffffffffffff167f4190f2c62c8794b65d58c651087f5d40a3993f92491edde1514b2988f5c3dccd868686866040518080602001806020018060200185151515158152602001848103845288818151815260200191508051906020019080838360005b83811015612aec578082015181840152602081019050612ad1565b50505050905090810190601f168015612b195780820380516001836020036101000a031916815260200191505b50848103835287818151815260200191508051906020019080838360005b83811015612b52578082015181840152602081019050612b37565b50505050905090810190601f168015612b7f5780820380516001836020036101000a031916815260200191505b50848103825286818151815260200191508051906020019080838360005b83811015612bb8578082015181840152602081019050612b9d565b50505050905090810190601f168015612be55780820380516001836020036101000a031916815260200191505b5097505050505050505060405180910390a28573ffffffffffffffffffffffffffffffffffffffff167f3b419384c2ac88d62e2daac72f8c6e6398c474d91c63e814a307e3641762c8de846040518080602001828103825283818151815260200191508051906020019080838360005b83811015612c70578082015181840152602081019050612c55565b50505050905090810190601f168015612c9d5780820380516001836020036101000a031916815260200191505b509250505060405180910390a26001905095945050505050565b60606001600360003373ffffffffffffffffffffffffffffffffffffffff1673ffffffffffffffffffffffffffffffffffffffff16815260200190815260200160002060009054906101000a900460ff1660ff16141515612d1757600080fd5b600260008373ffffffffffffffffffffffffffffffffffffffff1673ffffffffffffffffffffffffffffffffffffffff1681526020019081526020016000208054600181600116156101000203166002900480601f016020809104026020016040519081016040528092919081815260200182805460018160011615610100020316600290048015612dea5780601f10612dbf57610100808354040283529160200191612dea565b820191906000526020600020905b815481529060010190602001808311612dcd57829003601f168201915b50505050509050919050565b60008060009054906101000a900473ffffffffffffffffffffffffffffffffffffffff1673ffffffffffffffffffffffffffffffffffffffff163373ffffffffffffffffffffffffffffffffffffffff16141515612e5357600080fd5b6001600360008473ffffffffffffffffffffffffffffffffffffffff1673ffffffffffffffffffffffffffffffffffffffff16815260200190815260200160002060006101000a81548160ff021916908360ff1602179055507f8afeca650897be3183b7c0d24eba96a1b990f75c4bd74a0cfb2c0a71aec48e6182604051808273ffffffffffffffffffffffffffffffffffffffff1673ffffffffffffffffffffffffffffffffffffffff16815260200191505060405180910390a160019050919050565b6000806000809054906101000a900473ffffffffffffffffffffffffffffffffffffffff1673ffffffffffffffffffffffffffffffffffffffff163373ffffffffffffffffffffffffffffffffffffffff16141515612f7657600080fd5b600073ffffffffffffffffffffffffffffffffffffffff168773ffffffffffffffffffffffffffffffffffffffff1614151515612fb257600080fd5b612fbf8787878787612898565b90508673ffffffffffffffffffffffffffffffffffffffff167f4190f2c62c8794b65d58c651087f5d40a3993f92491edde1514b2988f5c3dccd878787876040518080602001806020018060200185151515158152602001848103845288818151815260200191508051906020019080838360005b8381101561304f578082015181840152602081019050613034565b50505050905090810190601f16801561307c5780820380516001836020036101000a031916815260200191505b50848103835287818151815260200191508051906020019080838360005b838110156130b557808201518184015260208101905061309a565b50505050905090810190601f1680156130e25780820380516001836020036101000a031916815260200191505b50848103825286818151815260200191508051906020019080838360005b8381101561311b578082015181840152602081019050613100565b50505050905090810190601f1680156131485780820380516001836020036101000a031916815260200191505b5097505050505050505060405180910390a28673ffffffffffffffffffffffffffffffffffffffff167f3b419384c2ac88d62e2daac72f8c6e6398c474d91c63e814a307e3641762c8de856040518080602001828103825283818151815260200191508051906020019080838360005b838110156131d35780820151818401526020810190506131b8565b50505050905090810190601f1680156132005780820380516001836020036101000a031916815260200191505b509250505060405180910390a28091505095945050505050565b600080600073ffffffffffffffffffffffffffffffffffffffff163373ffffffffffffffffffffffffffffffffffffffff161415151561325957600080fd5b6132663387878787612898565b90503373ffffffffffffffffffffffffffffffffffffffff167f4190f2c62c8794b65d58c651087f5d40a3993f92491edde1514b2988f5c3dccd878787876040518080602001806020018060200185151515158152602001848103845288818151815260200191508051906020019080838360005b838110156132f65780820151818401526020810190506132db565b50505050905090810190601f1680156133235780820380516001836020036101000a031916815260200191505b50848103835287818151815260200191508051906020019080838360005b8381101561335c578082015181840152602081019050613341565b50505050905090810190601f1680156133895780820380516001836020036101000a031916815260200191505b50848103825286818151815260200191508051906020019080838360005b838110156133c25780820151818401526020810190506133a7565b50505050905090810190601f1680156133ef5780820380516001836020036101000a031916815260200191505b5097505050505050505060405180910390a23373ffffffffffffffffffffffffffffffffffffffff167f3b419384c2ac88d62e2daac72f8c6e6398c474d91c63e814a307e3641762c8de856040518080602001828103825283818151815260200191508051906020019080838360005b8381101561347a57808201518184015260208101905061345f565b50505050905090810190601f1680156134a75780820380516001836020036101000a031916815260200191505b509250505060405180910390a280915050949350505050565b606080606060008073ffffffffffffffffffffffffffffffffffffffff168573ffffffffffffffffffffffffffffffffffffffff161415151561350257600080fd5b61350b85613bd1565b809450819550829650839750505050508383838393509350935093509193509193565b60606001600360003373ffffffffffffffffffffffffffffffffffffffff1673ffffffffffffffffffffffffffffffffffffffff16815260200190815260200160002060009054906101000a900460ff1660ff1614151561358e57600080fd5b600a60008373ffffffffffffffffffffffffffffffffffffffff1673ffffffffffffffffffffffffffffffffffffffff1681526020019081526020016000208054600181600116156101000203166002900480601f0160208091040260200160405190810160405280929190818152602001828054600181600116156101000203166002900480156136615780601f1061363657610100808354040283529160200191613661565b820191906000526020600020905b81548152906001019060200180831161364457829003601f168201915b50505050509050919050565b6000613678336158cb565b151561368357600080fd5b8760296000018190555086602960030190805190602001906136a6929190615a0f565b508560296001018190555084602960040190805190602001906136ca929190615a0f565b508360296002018190555082602960050190805190602001906136ee929190615a0f565b508160296006019080519060200190613708929190615a0f565b506029600960008b73ffffffffffffffffffffffffffffffffffffffff1673ffffffffffffffffffffffffffffffffffffffff1681526020019081526020016000206000820154816000015560018201548160010155600282015481600201556003820181600301908054600181600116156101000203166002900461378f929190615a8f565b50600482018160040190805460018160011615610100020316600290046137b7929190615a8f565b50600582018160050190805460018160011615610100020316600290046137df929190615a8f565b5060068201816006019080546001816001161561010002031660029004613807929190615a8f565b509050506040805190810160405280600481526020017f444f4e4500000000000000000000000000000000000000000000000000000000815250600a60008b73ffffffffffffffffffffffffffffffffffffffff1673ffffffffffffffffffffffffffffffffffffffff1681526020019081526020016000209080519060200190613893929190615a0f565b508873ffffffffffffffffffffffffffffffffffffffff163373ffffffffffffffffffffffffffffffffffffffff167fe10398ac963823ae3dc8fc855773d4c9c3d53c5aca656e360a2a5c2ae659f26160405160405180910390a36001905098975050505050505050565b6000613909336158cb565b151561391457600080fd5b876021600001819055508660216003019080519060200190613937929190615a0f565b508560216004019080519060200190613951929190615a0f565b50426021600101819055508460216005019080519060200190613975929190615a0f565b50836021600601908051906020019061398f929190615a0f565b5082602160070190805190602001906139a9929190615a0f565b50816021600201819055506021600860008b73ffffffffffffffffffffffffffffffffffffffff1673ffffffffffffffffffffffffffffffffffffffff16815260200190815260200160002060008201548160000155600182015481600101556002820154816002015560038201816003019080546001816001161561010002031660029004613a3a929190615a8f565b5060048201816004019080546001816001161561010002031660029004613a62929190615a8f565b5060058201816005019080546001816001161561010002031660029004613a8a929190615a8f565b5060068201816006019080546001816001161561010002031660029004613ab2929190615a8f565b5060078201816007019080546001816001161561010002031660029004613ada929190615a8f565b509050506040805190810160405280600981526020017f50524f434553534f520000000000000000000000000000000000000000000000815250600a60008b73ffffffffffffffffffffffffffffffffffffffff1673ffffffffffffffffffffffffffffffffffffffff1681526020019081526020016000209080519060200190613b66929190615a0f565b508873ffffffffffffffffffffffffffffffffffffffff163373ffffffffffffffffffffffffffffffffffffffff167fd42f803be1969ed3d7fe76e90571304a3e70f2f32b20773cbc303eff548cb05f60405160405180910390a36001905098975050505050505050565b60608060606000613be0615b16565b6001600360003373ffffffffffffffffffffffffffffffffffffffff1673ffffffffffffffffffffffffffffffffffffffff16815260200190815260200160002060009054906101000a900460ff1660ff16141515613c3e57600080fd5b600160008773ffffffffffffffffffffffffffffffffffffffff1673ffffffffffffffffffffffffffffffffffffffff16815260200190815260200160002060606040519081016040529081600082018054600181600116156101000203166002900480601f016020809104026020016040519081016040528092919081815260200182805460018160011615610100020316600290048015613d225780601f10613cf757610100808354040283529160200191613d22565b820191906000526020600020905b815481529060010190602001808311613d0557829003601f168201915b50505050508152602001600182018054600181600116156101000203166002900480601f016020809104026020016040519081016040528092919081815260200182805460018160011615610100020316600290048015613dc45780601f10613d9957610100808354040283529160200191613dc4565b820191906000526020600020905b815481529060010190602001808311613da757829003601f168201915b505050505081526020016002820160009054906101000a900460ff161515151581525050905080600001518160200151600260008973ffffffffffffffffffffffffffffffffffffffff1673ffffffffffffffffffffffffffffffffffffffff1681526020019081526020016000208360400151839350829250818054600181600116156101000203166002900480601f016020809104026020016040519081016040528092919081815260200182805460018160011615610100020316600290048015613ed35780601f10613ea857610100808354040283529160200191613ed3565b820191906000526020600020905b815481529060010190602001808311613eb657829003601f168201915b505050505091509450945094509450509193509193565b6000809054906101000a900473ffffffffffffffffffffffffffffffffffffffff1673ffffffffffffffffffffffffffffffffffffffff163373ffffffffffffffffffffffffffffffffffffffff16141515613f4557600080fd5b6000809054906101000a900473ffffffffffffffffffffffffffffffffffffffff1673ffffffffffffffffffffffffffffffffffffffff167ff8df31144d9c2f0f6b59d69b8b98abd5459d07f2742c4df920b25aae33c6482060405160405180910390a260008060006101000a81548173ffffffffffffffffffffffffffffffffffffffff021916908373ffffffffffffffffffffffffffffffffffffffff160217905550565b6060806060613ff9615b3a565b6001600360003373ffffffffffffffffffffffffffffffffffffffff1673ffffffffffffffffffffffffffffffffffffffff16815260200190815260200160002060009054906101000a900460ff1660ff1614151561405757600080fd5b600560008673ffffffffffffffffffffffffffffffffffffffff1673ffffffffffffffffffffffffffffffffffffffff16815260200190815260200160002060606040519081016040529081600082018054600181600116156101000203166002900480601f01602080910402602001604051908101604052809291908181526020018280546001816001161561010002031660029004801561413b5780601f106141105761010080835404028352916020019161413b565b820191906000526020600020905b81548152906001019060200180831161411e57829003601f168201915b50505050508152602001600182018054600181600116156101000203166002900480601f0160208091040260200160405190810160405280929190818152602001828054600181600116156101000203166002900480156141dd5780601f106141b2576101008083540402835291602001916141dd565b820191906000526020600020905b8154815290600101906020018083116141c057829003601f168201915b50505050508152602001600282018054600181600116156101000203166002900480601f01602080910402602001604051908101604052809291908181526020018280546001816001161561010002031660029004801561427f5780601f106142545761010080835404028352916020019161427f565b820191906000526020600020905b81548152906001019060200180831161426257829003601f168201915b5050505050815250509050806000015181602001518260400151829250819150809050935093509350509193909250565b6000809054906101000a900473ffffffffffffffffffffffffffffffffffffffff1681565b60006142e0336158cb565b15156142eb57600080fd5b86601960030181905550856019600001908051906020019061430e929190615a0f565b508460196001019080519060200190614328929190615a0f565b508360196002019080519060200190614342929190615a0f565b504260196004018190555082601960050181905550816019600701819055506019600760008a73ffffffffffffffffffffffffffffffffffffffff1673ffffffffffffffffffffffffffffffffffffffff168152602001908152602001600020600082018160000190805460018160011615610100020316600290046143c9929190615a8f565b50600182018160010190805460018160011615610100020316600290046143f1929190615a8f565b5060028201816002019080546001816001161561010002031660029004614419929190615a8f565b5060038201548160030155600482015481600401556005820154816005015560068201548160060155600782015481600701559050506040805190810160405280600881526020017f494d504f52544552000000000000000000000000000000000000000000000000815250600a60008a73ffffffffffffffffffffffffffffffffffffffff1673ffffffffffffffffffffffffffffffffffffffff16815260200190815260200160002090805190602001906144d7929190615a0f565b508773ffffffffffffffffffffffffffffffffffffffff163373ffffffffffffffffffffffffffffffffffffffff167feaba9e3c271bb82a9fd28bf677c9ee9b7a261f8ac7340051834c654f445e7db860405160405180910390a360019050979650505050505050565b60006060600060606000606080614556615b5c565b6001600360003373ffffffffffffffffffffffffffffffffffffffff1673ffffffffffffffffffffffffffffffffffffffff16815260200190815260200160002060009054906101000a900460ff1660ff161415156145b457600080fd5b600960008a73ffffffffffffffffffffffffffffffffffffffff1673ffffffffffffffffffffffffffffffffffffffff16815260200190815260200160002060e06040519081016040529081600082015481526020016001820154815260200160028201548152602001600382018054600181600116156101000203166002900480601f0160208091040260200160405190810160405280929190818152602001828054600181600116156101000203166002900480156146b65780601f1061468b576101008083540402835291602001916146b6565b820191906000526020600020905b81548152906001019060200180831161469957829003601f168201915b50505050508152602001600482018054600181600116156101000203166002900480601f0160208091040260200160405190810160405280929190818152602001828054600181600116156101000203166002900480156147585780601f1061472d57610100808354040283529160200191614758565b820191906000526020600020905b81548152906001019060200180831161473b57829003601f168201915b50505050508152602001600582018054600181600116156101000203166002900480601f0160208091040260200160405190810160405280929190818152602001828054600181600116156101000203166002900480156147fa5780601f106147cf576101008083540402835291602001916147fa565b820191906000526020600020905b8154815290600101906020018083116147dd57829003601f168201915b50505050508152602001600682018054600181600116156101000203166002900480601f01602080910402602001604051908101604052809291908181526020018280546001816001161561010002031660029004801561489c5780601f106148715761010080835404028352916020019161489c565b820191906000526020600020905b81548152906001019060200180831161487f57829003601f168201915b5050505050815250509050806000015181606001518260200151836080015184604001518560a001518660c00151859550839350819150809050975097509750975097509750975050919395979092949650565b60608060606148fd615b9a565b6001600360003373ffffffffffffffffffffffffffffffffffffffff1673ffffffffffffffffffffffffffffffffffffffff16815260200190815260200160002060009054906101000a900460ff1660ff1614151561495b57600080fd5b600660008673ffffffffffffffffffffffffffffffffffffffff1673ffffffffffffffffffffffffffffffffffffffff16815260200190815260200160002060606040519081016040529081600082018054600181600116156101000203166002900480601f016020809104026020016040519081016040528092919081815260200182805460018160011615610100020316600290048015614a3f5780601f10614a1457610100808354040283529160200191614a3f565b820191906000526020600020905b815481529060010190602001808311614a2257829003601f168201915b50505050508152602001600182018054600181600116156101000203166002900480601f016020809104026020016040519081016040528092919081815260200182805460018160011615610100020316600290048015614ae15780601f10614ab657610100808354040283529160200191614ae1565b820191906000526020600020905b815481529060010190602001808311614ac457829003601f168201915b50505050508152602001600282018054600181600116156101000203166002900480601f016020809104026020016040519081016040528092919081815260200182805460018160011615610100020316600290048015614b835780601f10614b5857610100808354040283529160200191614b83565b820191906000526020600020905b815481529060010190602001808311614b6657829003601f168201915b5050505050815250509050806000015181602001518260400151829250819150809050935093509350509193909250565b60008060006001600360003373ffffffffffffffffffffffffffffffffffffffff1673ffffffffffffffffffffffffffffffffffffffff16815260200190815260200160002060009054906101000a900460ff1660ff16141515614c1757600080fd5b3342604051808373ffffffffffffffffffffffffffffffffffffffff1673ffffffffffffffffffffffffffffffffffffffff166c0100000000000000000000000002815260140182815260200192505050604051809103902060019004915081905087600e6000019080519060200190614c92929190615a0f565b5086600e6001019080519060200190614cac929190615a0f565b5085600e6002019080519060200190614cc6929190615a0f565b5084600e6003019080519060200190614ce0929190615a0f565b5083600e6004019080519060200190614cfa929190615a0f565b50600e600460008373ffffffffffffffffffffffffffffffffffffffff1673ffffffffffffffffffffffffffffffffffffffff16815260200190815260200160002060008201816000019080546001816001161561010002031660029004614d63929190615a8f565b5060018201816001019080546001816001161561010002031660029004614d8b929190615a8f565b5060028201816002019080546001816001161561010002031660029004614db3929190615a8f565b5060038201816003019080546001816001161561010002031660029004614ddb929190615a8f565b5060048201816004019080546001816001161561010002031660029004614e03929190615a8f565b509050506040805190810160405280600f81526020017f4641524d5f494e5350454354494f4e0000000000000000000000000000000000815250600a60008373ffffffffffffffffffffffffffffffffffffffff1673ffffffffffffffffffffffffffffffffffffffff1681526020019081526020016000209080519060200190614e8f929190615a0f565b508073ffffffffffffffffffffffffffffffffffffffff163373ffffffffffffffffffffffffffffffffffffffff167ffb0cd0976d848f2ad8c4a6963c1295c96186b2f3919c8204b4fcb350fc36a31f60405160405180910390a3809250505095945050505050565b6060806060806060614f08615bbc565b6001600360003373ffffffffffffffffffffffffffffffffffffffff1673ffffffffffffffffffffffffffffffffffffffff16815260200190815260200160002060009054906101000a900460ff1660ff16141515614f6657600080fd5b600460008873ffffffffffffffffffffffffffffffffffffffff1673ffffffffffffffffffffffffffffffffffffffff16815260200190815260200160002060a06040519081016040529081600082018054600181600116156101000203166002900480601f01602080910402602001604051908101604052809291908181526020018280546001816001161561010002031660029004801561504a5780601f1061501f5761010080835404028352916020019161504a565b820191906000526020600020905b81548152906001019060200180831161502d57829003601f168201915b50505050508152602001600182018054600181600116156101000203166002900480601f0160208091040260200160405190810160405280929190818152602001828054600181600116156101000203166002900480156150ec5780601f106150c1576101008083540402835291602001916150ec565b820191906000526020600020905b8154815290600101906020018083116150cf57829003601f168201915b50505050508152602001600282018054600181600116156101000203166002900480601f01602080910402602001604051908101604052809291908181526020018280546001816001161561010002031660029004801561518e5780601f106151635761010080835404028352916020019161518e565b820191906000526020600020905b81548152906001019060200180831161517157829003601f168201915b50505050508152602001600382018054600181600116156101000203166002900480601f0160208091040260200160405190810160405280929190818152602001828054600181600116156101000203166002900480156152305780601f1061520557610100808354040283529160200191615230565b820191906000526020600020905b81548152906001019060200180831161521357829003601f168201915b50505050508152602001600482018054600181600116156101000203166002900480601f0160208091040260200160405190810160405280929190818152602001828054600181600116156101000203166002900480156152d25780601f106152a7576101008083540402835291602001916152d2565b820191906000526020600020905b8154815290600101906020018083116152b557829003601f168201915b505050505081525050905080600001518160200151826040015183606001518460800151849450839350829250819150809050955095509550955095505091939590929450565b6000809054906101000a900473ffffffffffffffffffffffffffffffffffffffff1673ffffffffffffffffffffffffffffffffffffffff163373ffffffffffffffffffffffffffffffffffffffff1614151561537457600080fd5b600073ffffffffffffffffffffffffffffffffffffffff168173ffffffffffffffffffffffffffffffffffffffff16141515156153b057600080fd5b8073ffffffffffffffffffffffffffffffffffffffff166000809054906101000a900473ffffffffffffffffffffffffffffffffffffffff1673ffffffffffffffffffffffffffffffffffffffff167f8be0079c531659141344cd1fd0a4f28419497f9722a3daafe3b4186f6b6457e060405160405180910390a3806000806101000a81548173ffffffffffffffffffffffffffffffffffffffff021916908373ffffffffffffffffffffffffffffffffffffffff16021790555050565b6000606080600060608060606000615484615bec565b6001600360003373ffffffffffffffffffffffffffffffffffffffff1673ffffffffffffffffffffffffffffffffffffffff16815260200190815260200160002060009054906101000a900460ff1660ff161415156154e257600080fd5b600860008b73ffffffffffffffffffffffffffffffffffffffff1673ffffffffffffffffffffffffffffffffffffffff1681526020019081526020016000206101006040519081016040529081600082015481526020016001820154815260200160028201548152602001600382018054600181600116156101000203166002900480601f0160208091040260200160405190810160405280929190818152602001828054600181600116156101000203166002900480156155e55780601f106155ba576101008083540402835291602001916155e5565b820191906000526020600020905b8154815290600101906020018083116155c857829003601f168201915b50505050508152602001600482018054600181600116156101000203166002900480601f0160208091040260200160405190810160405280929190818152602001828054600181600116156101000203166002900480156156875780601f1061565c57610100808354040283529160200191615687565b820191906000526020600020905b81548152906001019060200180831161566a57829003601f168201915b50505050508152602001600582018054600181600116156101000203166002900480601f0160208091040260200160405190810160405280929190818152602001828054600181600116156101000203166002900480156157295780601f106156fe57610100808354040283529160200191615729565b820191906000526020600020905b81548152906001019060200180831161570c57829003601f168201915b50505050508152602001600682018054600181600116156101000203166002900480601f0160208091040260200160405190810160405280929190818152602001828054600181600116156101000203166002900480156157cb5780601f106157a0576101008083540402835291602001916157cb565b820191906000526020600020905b8154815290600101906020018083116157ae57829003601f168201915b50505050508152602001600782018054600181600116156101000203166002900480601f01602080910402602001604051908101604052809291908181526020018280546001816001161561010002031660029004801561586d5780601f106158425761010080835404028352916020019161586d565b820191906000526020600020905b81548152906001019060200180831161585057829003601f168201915b505050505081525050905080600001518160600151826080015183602001518460a001518560c001518660e0015187604001518696508595508393508292508191509850985098509850985098509850985050919395975091939597565b60006159b0600160008473ffffffffffffffffffffffffffffffffffffffff1673ffffffffffffffffffffffffffffffffffffffff1681526020019081526020016000206000018054600181600116156101000203166002900480601f0160208091040260200160405190810160405280929190818152602001828054600181600116156101000203166002900480156159a65780601f1061597b576101008083540402835291602001916159a6565b820191906000526020600020905b81548152906001019060200180831161598957829003601f168201915b5050505050612542565b15156159bf57600190506159c4565b600090505b919050565b6101006040519081016040528060608152602001606081526020016060815260200160008152602001600081526020016000815260200160008152602001600081525090565b828054600181600116156101000203166002900490600052602060002090601f016020900481019282601f10615a5057805160ff1916838001178555615a7e565b82800160010185558215615a7e579182015b82811115615a7d578251825591602001919060010190615a62565b5b509050615a8b9190615c32565b5090565b828054600181600116156101000203166002900490600052602060002090601f016020900481019282601f10615ac85780548555615b05565b82800160010185558215615b0557600052602060002091601f016020900482015b82811115615b04578254825591600101919060010190615ae9565b5b509050615b129190615c32565b5090565b60606040519081016040528060608152602001606081526020016000151581525090565b6060604051908101604052806060815260200160608152602001606081525090565b60e060405190810160405280600081526020016000815260200160008152602001606081526020016060815260200160608152602001606081525090565b6060604051908101604052806060815260200160608152602001606081525090565b60a06040519081016040528060608152602001606081526020016060815260200160608152602001606081525090565b6101006040519081016040528060008152602001600081526020016000815260200160608152602001606081526020016060815260200160608152602001606081525090565b615c5491905b80821115615c50576000816000905550600101615c38565b5090565b905600a165627a7a7230582054f0f1e96191e977dd815625f8332b8b231576a2209ab47e041df83e91064a400029",
  "source": "pragma solidity ^0.4.23;\n\nimport \"./SupplyChainStorageOwnable.sol\";\n\ncontract SupplyChainStorage is SupplyChainStorageOwnable {\n    \n    constructor() public {\n        authorizedCaller[msg.sender] = 1;\n        emit AuthorizedCaller(msg.sender);\n    }\n    \n    /* Events */\n    event AuthorizedCaller(address caller);\n    event DeAuthorizedCaller(address caller);\n\n    event PerformCultivation(address indexed user, address indexed batchNo);\n    event DoneInspection(address indexed user, address indexed batchNo);\n    event DoneHarvesting(address indexed user, address indexed batchNo);\n    event DoneExporting(address indexed user, address indexed batchNo);\n    event DoneImporting(address indexed user, address indexed batchNo);\n    event DoneProcessing(address indexed user, address indexed batchNo);\n    \n\n    event UserUpdate(address indexed user, string name, string contactNo, string role, bool isActive);\n    event UserRoleUpdate(address indexed user, string role); \n    /* Modifiers */\n    \n    modifier onlyAuthCaller(){\n        require(authorizedCaller[msg.sender] == 1);\n        _;\n    }\n    \n    /* User Related */\n    struct user {\n        string name;\n        string contactNo;\n        bool isActive;\n    } \n    \n    mapping(address => user) userDetails;\n    mapping(address => string) userRole;\n    \n    /* Caller Mapping */\n    mapping(address => uint8) authorizedCaller;\n    \n    /* authorize caller */\n    function authorizeCaller(address _caller) public onlyOwner returns(bool) \n    {\n        authorizedCaller[_caller] = 1;\n        emit AuthorizedCaller(_caller);\n        return true;\n    }\n    \n    /* deauthorize caller */\n    function deAuthorizeCaller(address _caller) public onlyOwner returns(bool) \n    {\n        authorizedCaller[_caller] = 0;\n        emit DeAuthorizedCaller(_caller);\n        return true;\n    }\n    \n    /*User Roles\n        SUPER_ADMIN,\n        FARM_INSPECTION,\n        HARVESTER,\n        EXPORTER,\n        IMPORTER,\n        PROCESSOR\n    */\n    \n    /* Process Related */\n     struct basicDetails {\n        string registrationNo;\n        string farmerName;\n        string farmAddress;\n        string exporterName;\n        string importerName;\n        \n    }\n    \n    struct farmInspector {\n        string coffeeFamily;\n        string typeOfSeed;\n        string fertilizerUsed;\n    }\n    \n    struct harvester {\n        string cropVariety;\n        string temperatureUsed;\n        string humidity;\n    }    \n    \n    struct exporter {\n        string destinationAddress;\n        string shipName;\n        string shipNo;\n        uint256 quantity;\n        uint256 departureDateTime;\n        uint256 estimateDateTime;\n        uint256 plantNo;\n        uint256 exporterId;\n    }\n    \n    struct importer {\n        uint256 quantity;\n        uint256 arrivalDateTime;\n        uint256 importerId;\n        string shipName;\n        string shipNo;\n        string transportInfo;\n        string warehouseName;\n        string warehouseAddress;\n    }\n    \n    struct processor {\n        uint256 quantity;\n        uint256 rostingDuration;\n        uint256 packageDateTime;\n        string temperature;\n        string internalBatchNo;\n        string processorName;\n        string processorAddress;\n    }\n    \n    mapping (address => basicDetails) batchBasicDetails;\n    mapping (address => farmInspector) batchFarmInspector;\n    mapping (address => harvester) batchHarvester;\n    mapping (address => exporter) batchExporter;\n    mapping (address => importer) batchImporter;\n    mapping (address => processor) batchProcessor;\n    mapping (address => string) nextAction;\n    \n    /*Initialize struct pointer*/\n    user userDetail;\n    basicDetails basicDetailsData;\n    farmInspector farmInspectorData;\n    harvester harvesterData;\n    exporter exporterData;\n    importer importerData;\n    processor processorData; \n    \n    \n\n    function ChuoiRong (string Chuoi) pure public returns (bool) {\n        bytes memory _value = bytes (Chuoi);\n        if (_value.length == 0)\n            return true;\n        return false;\n    }\n\n\n    function NguoiDungTonTai (address diaChi) constant private returns (bool) {\n        if (!ChuoiRong (userDetails [diaChi].name)) {\n            return true;\n        }\n        return false;\n    }\n    \n    /* Get User Role */\n    function getUserRole(address _userAddress) public onlyAuthCaller view returns(string)\n    {\n        return userRole[_userAddress];\n    }\n    \n    /* Get Next Action  */    \n    function getNextAction(address _batchNo) public onlyAuthCaller view returns(string)\n    {\n        return nextAction[_batchNo];\n    }\n        \n    /*set user details*/\n    function setUser(address _userAddress,\n                     string _name, \n                     string _contactNo, \n                     string _role, \n                     bool _isActive) public onlyAuthCaller view returns(bool){\n        \n        /*store data into struct*/\n        userDetail.name = _name;\n        userDetail.contactNo = _contactNo;\n        userDetail.isActive = _isActive;\n        \n        /*store data into mapping*/\n        userDetails[_userAddress] = userDetail;\n        userRole[_userAddress] = _role;\n        \n        emit UserUpdate(_userAddress,_name,_contactNo,_role,_isActive);\n        emit UserRoleUpdate(_userAddress,_role);\n\n        return true;\n    }  \n    /* Create/Update User For Admin  */\n    function updateUserForAdmin(address _userAddress, string _name, string _contactNo, string _role, bool _isActive) public onlyOwner returns(bool)\n    {\n        require(_userAddress != address(0));\n        \n        /* Call Storage Contract */\n        bool status = setUser(_userAddress, _name, _contactNo, _role, _isActive);\n        \n         /*call event*/\n        emit UserUpdate(_userAddress,_name,_contactNo,_role,_isActive);\n        emit UserRoleUpdate(_userAddress,_role);\n        \n        return status;\n    }\n\t\n\t/* Create/Update User */\n    function updateUser(string _name, string _contactNo, string _role, bool _isActive) public returns(bool)\n    {\n        require(msg.sender != address(0));\n        \n        /* Call Storage Contract */\n        bool status = setUser(msg.sender, _name, _contactNo, _role, _isActive);\n        \n         /*call event*/\n        emit UserUpdate(msg.sender,_name,_contactNo,_role,_isActive);\n        emit UserRoleUpdate(msg.sender,_role);\n        \n        return status;\n    }\n    /*get user details*/\n    function getUser(address _userAddress) public onlyAuthCaller view returns(string name, \n                                                                    string contactNo, \n                                                                    string role,\n                                                                    bool isActive\n                                                                ){\n\n        /*Getting value from struct*/\n        user memory tmpData = userDetails[_userAddress];\n        \n        return (tmpData.name, tmpData.contactNo, userRole[_userAddress], tmpData.isActive);\n    }\n    function getUserAdmin(address _userAddress) public view returns(string name, string contactNo, string role, bool isActive){\n        require(_userAddress != address(0));\n        \n        /*Getting value from struct*/\n       (name, contactNo, role, isActive) = getUser(_userAddress);\n       \n       return (name, contactNo, role, isActive);\n    }\n    /*get batch basicDetails*/\n    function getBasicDetails(address _batchNo) public onlyAuthCaller view returns(string registrationNo,\n                             string farmerName,\n                             string farmAddress,\n                             string exporterName,\n                             string importerName) {\n        \n        basicDetails memory tmpData = batchBasicDetails[_batchNo];\n        \n        return (tmpData.registrationNo,tmpData.farmerName,tmpData.farmAddress,tmpData.exporterName,tmpData.importerName);\n    }\n    \n    /*set batch basicDetails*/\n    function setBasicDetails(string _registrationNo,\n                             string _farmerName,\n                             string _farmAddress,\n                             string _exporterName,\n                             string _importerName\n                             \n                            ) public onlyAuthCaller returns(address) {\n        \n        uint tmpData = uint(keccak256(msg.sender, now));\n        address batchNo = address(tmpData);\n        basicDetailsData.registrationNo = _registrationNo;\n        basicDetailsData.farmerName = _farmerName;\n        basicDetailsData.farmAddress = _farmAddress;\n        basicDetailsData.exporterName = _exporterName;\n        basicDetailsData.importerName = _importerName;\n        \n        batchBasicDetails[batchNo] = basicDetailsData;\n        \n        nextAction[batchNo] = 'FARM_INSPECTION';   \n        \n        emit PerformCultivation(msg.sender, batchNo);\n        \n        return batchNo;\n    }\n    \n    /*set farm Inspector data*/\n    function setFarmInspectorData(address batchNo,\n                                    string _coffeeFamily,\n                                    string _typeOfSeed,\n                                    string _fertilizerUsed) public returns(bool){\n\trequire (NguoiDungTonTai (msg.sender));\n        farmInspectorData.coffeeFamily = _coffeeFamily;\n        farmInspectorData.typeOfSeed = _typeOfSeed;\n        farmInspectorData.fertilizerUsed = _fertilizerUsed;\n        batchFarmInspector[batchNo] = farmInspectorData;\n        nextAction[batchNo] = 'HARVESTER'; \n        \n        emit DoneInspection(msg.sender, batchNo);\n\n        return true;\n    }\n    \n    /*get farm inspactor data*/\n    function getFarmInspectorData(address batchNo) public onlyAuthCaller view returns (string coffeeFamily,string typeOfSeed,string fertilizerUsed){\n        \n        farmInspector memory tmpData = batchFarmInspector[batchNo];\n        return (tmpData.coffeeFamily, tmpData.typeOfSeed, tmpData.fertilizerUsed);\n    }\n    \n\n    /*set Harvester data*/\n    function setHarvesterData(address batchNo,\n                              string _cropVariety,\n                              string _temperatureUsed,\n                              string _humidity) public returns(bool){\n\trequire (NguoiDungTonTai (msg.sender));\n        harvesterData.cropVariety = _cropVariety;\n        harvesterData.temperatureUsed = _temperatureUsed;\n        harvesterData.humidity = _humidity;\n        \n        batchHarvester[batchNo] = harvesterData;\n        \n        nextAction[batchNo] = 'EXPORTER'; \n        \n        emit DoneHarvesting(msg.sender, batchNo);\n\n        return true;\n    }\n    \n    /*get farm Harvester data*/\n    function getHarvesterData(address batchNo) public onlyAuthCaller view returns(string cropVariety,\n                                                                                           string temperatureUsed,\n                                                                                           string humidity){\n        \n        harvester memory tmpData = batchHarvester[batchNo];\n        return (tmpData.cropVariety, tmpData.temperatureUsed, tmpData.humidity);\n    }\n    \n    /*set Exporter data*/\n    function setExporterData(address batchNo,\n                              uint256 _quantity,    \n                              string _destinationAddress,\n                              string _shipName,\n                              string _shipNo,\n                              uint256 _estimateDateTime,\n                              uint256 _exporterId) public returns(bool){\n        require (NguoiDungTonTai (msg.sender));\n        exporterData.quantity = _quantity;\n        exporterData.destinationAddress = _destinationAddress;\n        exporterData.shipName = _shipName;\n        exporterData.shipNo = _shipNo;\n        exporterData.departureDateTime = now;\n        exporterData.estimateDateTime = _estimateDateTime;\n        exporterData.exporterId = _exporterId;\n        \n        batchExporter[batchNo] = exporterData;\n        \n        nextAction[batchNo] = 'IMPORTER'; \n        \n        emit DoneExporting(msg.sender, batchNo);\n\n        return true;\n    }\n    \n    /*get Exporter data*/\n    function getExporterData(address batchNo) public onlyAuthCaller view returns(uint256 quantity,\n                                                                string destinationAddress,\n                                                                string shipName,\n                                                                string shipNo,\n                                                                uint256 departureDateTime,\n                                                                uint256 estimateDateTime,\n                                                                uint256 exporterId){\n        \n        \n        exporter memory tmpData = batchExporter[batchNo];\n        \n        \n        return (tmpData.quantity, \n                tmpData.destinationAddress, \n                tmpData.shipName, \n                tmpData.shipNo, \n                tmpData.departureDateTime, \n                tmpData.estimateDateTime, \n                tmpData.exporterId);\n                \n        \n    }\n\n    \n    /*set Importer data*/\n    function setImporterData(address batchNo,\n                              uint256 _quantity, \n                              string _shipName,\n                              string _shipNo,\n                              string _transportInfo,\n                              string _warehouseName,\n                              string _warehouseAddress,\n                              uint256 _importerId) public returns(bool){\n        require (NguoiDungTonTai (msg.sender));\n        importerData.quantity = _quantity;\n        importerData.shipName = _shipName;\n        importerData.shipNo = _shipNo;\n        importerData.arrivalDateTime = now;\n        importerData.transportInfo = _transportInfo;\n        importerData.warehouseName = _warehouseName;\n        importerData.warehouseAddress = _warehouseAddress;\n        importerData.importerId = _importerId;\n        \n        batchImporter[batchNo] = importerData;\n        \n        nextAction[batchNo] = 'PROCESSOR'; \n        \n        emit DoneImporting(msg.sender, batchNo);\n\n        return true;\n    }\n    \n    /*get Importer data*/\n    function getImporterData(address batchNo) public onlyAuthCaller view returns(uint256 quantity,\n                                                                                        string shipName,\n                                                                                        string shipNo,\n                                                                                        uint256 arrivalDateTime,\n                                                                                        string transportInfo,\n                                                                                        string warehouseName,\n                                                                                        string warehouseAddress,\n                                                                                        uint256 importerId){\n        \n        importer memory tmpData = batchImporter[batchNo];\n        \n        \n        return (tmpData.quantity, \n                tmpData.shipName, \n                tmpData.shipNo, \n                tmpData.arrivalDateTime, \n                tmpData.transportInfo,\n                tmpData.warehouseName,\n                tmpData.warehouseAddress,\n                tmpData.importerId);\n                \n        \n    }\n\n    /*set Proccessor data*/\n    function setProcessorData(address batchNo,\n                              uint256 _quantity, \n                              string _temperature,\n                              uint256 _rostingDuration,\n                              string _internalBatchNo,\n                              uint256 _packageDateTime,\n                              string _processorName,\n                              string _processorAddress) public returns(bool){\n        \n        require (NguoiDungTonTai (msg.sender));\n        processorData.quantity = _quantity;\n        processorData.temperature = _temperature;\n        processorData.rostingDuration = _rostingDuration;\n        processorData.internalBatchNo = _internalBatchNo;\n        processorData.packageDateTime = _packageDateTime;\n        processorData.processorName = _processorName;\n        processorData.processorAddress = _processorAddress;\n        \n        batchProcessor[batchNo] = processorData;\n        \n        nextAction[batchNo] = 'DONE'; \n        \n        emit DoneProcessing(msg.sender, batchNo);\n\n        return true;\n    }\n    \n    \n    /*get Processor data*/\n    function getProcessorData( address batchNo) public onlyAuthCaller view returns(\n                                                                                        uint256 quantity,\n                                                                                        string temperature,\n                                                                                        uint256 rostingDuration,\n                                                                                        string internalBatchNo,\n                                                                                        uint256 packageDateTime,\n                                                                                        string processorName,\n                                                                                        string processorAddress){\n\n        processor memory tmpData = batchProcessor[batchNo];\n        \n        \n        return (\n                tmpData.quantity, \n                tmpData.temperature, \n                tmpData.rostingDuration, \n                tmpData.internalBatchNo,\n                tmpData.packageDateTime,\n                tmpData.processorName,\n                tmpData.processorAddress);\n                \n        \n    }\n\n  \n}    \n",
  "sourcePath": "/home/thieuvan/Desktop/myChain2/Projects/coffee-supplychain/contracts/SupplyChainStorage.sol",
  "compiler": {
    "name": "solc",
    "version": "0.4.24+commit.e67f0147.Emscripten.clang"
  },
  "schemaVersion": "2.0.1",
  "updatedAt": "2018-11-21T18:17:29.402Z"
}